{
	"InformedConsent.sol": {
		"InformedConsentContract": {
			"abi": [
				{
					"inputs": [],
					"stateMutability": "nonpayable",
					"type": "constructor"
				},
				{
					"inputs": [
						{
							"internalType": "string",
							"name": "_subject",
							"type": "string"
						},
						{
							"internalType": "string",
							"name": "_action",
							"type": "string"
						},
						{
							"internalType": "string",
							"name": "_object",
							"type": "string"
						}
					],
					"name": "addInformedConsentRecord",
					"outputs": [],
					"stateMutability": "nonpayable",
					"type": "function"
				},
				{
					"inputs": [],
					"name": "getAllInformedConsents",
					"outputs": [
						{
							"components": [
								{
									"internalType": "string",
									"name": "subject",
									"type": "string"
								},
								{
									"internalType": "string",
									"name": "action",
									"type": "string"
								},
								{
									"internalType": "string",
									"name": "object",
									"type": "string"
								}
							],
							"internalType": "struct InformedConsentContract.InformedConsent[]",
							"name": "",
							"type": "tuple[]"
						}
					],
					"stateMutability": "view",
					"type": "function"
				},
				{
					"inputs": [
						{
							"internalType": "string",
							"name": "_object",
							"type": "string"
						}
					],
					"name": "getConsentsByObject",
					"outputs": [
						{
							"components": [
								{
									"internalType": "string",
									"name": "subject",
									"type": "string"
								},
								{
									"internalType": "string",
									"name": "action",
									"type": "string"
								},
								{
									"internalType": "string",
									"name": "object",
									"type": "string"
								}
							],
							"internalType": "struct InformedConsentContract.InformedConsent[]",
							"name": "",
							"type": "tuple[]"
						}
					],
					"stateMutability": "view",
					"type": "function"
				},
				{
					"inputs": [
						{
							"internalType": "string",
							"name": "_subject",
							"type": "string"
						}
					],
					"name": "getConsentsBySubject",
					"outputs": [
						{
							"components": [
								{
									"internalType": "string",
									"name": "subject",
									"type": "string"
								},
								{
									"internalType": "string",
									"name": "action",
									"type": "string"
								},
								{
									"internalType": "string",
									"name": "object",
									"type": "string"
								}
							],
							"internalType": "struct InformedConsentContract.InformedConsent[]",
							"name": "",
							"type": "tuple[]"
						}
					],
					"stateMutability": "view",
					"type": "function"
				},
				{
					"inputs": [],
					"name": "getConsentsForRead",
					"outputs": [
						{
							"components": [
								{
									"internalType": "string",
									"name": "subject",
									"type": "string"
								},
								{
									"internalType": "string",
									"name": "action",
									"type": "string"
								},
								{
									"internalType": "string",
									"name": "object",
									"type": "string"
								}
							],
							"internalType": "struct InformedConsentContract.InformedConsent[]",
							"name": "",
							"type": "tuple[]"
						}
					],
					"stateMutability": "view",
					"type": "function"
				},
				{
					"inputs": [],
					"name": "getConsentsForUpdate",
					"outputs": [
						{
							"components": [
								{
									"internalType": "string",
									"name": "subject",
									"type": "string"
								},
								{
									"internalType": "string",
									"name": "action",
									"type": "string"
								},
								{
									"internalType": "string",
									"name": "object",
									"type": "string"
								}
							],
							"internalType": "struct InformedConsentContract.InformedConsent[]",
							"name": "",
							"type": "tuple[]"
						}
					],
					"stateMutability": "view",
					"type": "function"
				},
				{
					"inputs": [],
					"name": "getConsentsForWrite",
					"outputs": [
						{
							"components": [
								{
									"internalType": "string",
									"name": "subject",
									"type": "string"
								},
								{
									"internalType": "string",
									"name": "action",
									"type": "string"
								},
								{
									"internalType": "string",
									"name": "object",
									"type": "string"
								}
							],
							"internalType": "struct InformedConsentContract.InformedConsent[]",
							"name": "",
							"type": "tuple[]"
						}
					],
					"stateMutability": "view",
					"type": "function"
				},
				{
					"inputs": [],
					"name": "owner",
					"outputs": [
						{
							"internalType": "address",
							"name": "",
							"type": "address"
						}
					],
					"stateMutability": "view",
					"type": "function"
				},
				{
					"inputs": [],
					"name": "patientId",
					"outputs": [
						{
							"internalType": "string",
							"name": "",
							"type": "string"
						}
					],
					"stateMutability": "view",
					"type": "function"
				},
				{
					"inputs": [
						{
							"internalType": "string",
							"name": "_newPatientId",
							"type": "string"
						}
					],
					"name": "setPatientId",
					"outputs": [],
					"stateMutability": "nonpayable",
					"type": "function"
				}
			],
			"devdoc": {
				"details": "Manages and stores informed consent records with functionalities to add and retrieve records based on different attributes.",
				"kind": "dev",
				"methods": {
					"addInformedConsentRecord(string,string,string)": {
						"details": "Adds a new InformedConsent record.",
						"params": {
							"_action": "The action of the consent.",
							"_object": "The object of the consent.",
							"_subject": "The subject of the consent."
						}
					},
					"constructor": {
						"details": "Constructor initializes the contract setting the deploying address as the owner."
					},
					"getAllInformedConsents()": {
						"details": "Retrieve all InformedConsent records.",
						"returns": {
							"_0": "An array of all stored InformedConsent records."
						}
					},
					"getConsentsByObject(string)": {
						"details": "Retrieve all InformedConsent records with a specific object.",
						"params": {
							"_object": "The object to be matched."
						},
						"returns": {
							"_0": "An array of all matching InformedConsent records."
						}
					},
					"getConsentsBySubject(string)": {
						"details": "Retrieve all InformedConsent records with a specific subject.",
						"params": {
							"_subject": "The subject to be matched."
						},
						"returns": {
							"_0": "An array of all matching InformedConsent records."
						}
					},
					"getConsentsForRead()": {
						"details": "Retrieve all consents for reading action.",
						"returns": {
							"_0": "An array of all consents with action type 'Read'."
						}
					},
					"getConsentsForUpdate()": {
						"details": "Retrieve all consents for updating action.",
						"returns": {
							"_0": "An array of all consents with action type 'Update'."
						}
					},
					"getConsentsForWrite()": {
						"details": "Retrieve all consents for writing action.",
						"returns": {
							"_0": "An array of all consents with action type 'Write'."
						}
					},
					"setPatientId(string)": {
						"details": "Allows the owner to set a patient ID.",
						"params": {
							"_newPatientId": "The ID to be set for the patient."
						}
					}
				},
				"title": "InformedConsentContract",
				"version": 1
			},
			"evm": {
				"assembly": "    /* \"InformedConsent.sol\":231:4306  contract InformedConsentContract {... */\n  mstore(0x40, 0x80)\n    /* \"InformedConsent.sol\":904:953  constructor() {... */\n  callvalue\n  dup1\n  iszero\n  tag_1\n  jumpi\n  0x00\n  dup1\n  revert\ntag_1:\n  pop\n    /* \"InformedConsent.sol\":936:946  msg.sender */\n  caller\n    /* \"InformedConsent.sol\":928:933  owner */\n  0x01\n  0x00\n    /* \"InformedConsent.sol\":928:946  owner = msg.sender */\n  0x0100\n  exp\n  dup2\n  sload\n  dup2\n  0xffffffffffffffffffffffffffffffffffffffff\n  mul\n  not\n  and\n  swap1\n  dup4\n  0xffffffffffffffffffffffffffffffffffffffff\n  and\n  mul\n  or\n  swap1\n  sstore\n  pop\n    /* \"InformedConsent.sol\":231:4306  contract InformedConsentContract {... */\n  dataSize(sub_0)\n  dup1\n  dataOffset(sub_0)\n  0x00\n  codecopy\n  0x00\n  return\nstop\n\nsub_0: assembly {\n        /* \"InformedConsent.sol\":231:4306  contract InformedConsentContract {... */\n      mstore(0x40, 0x80)\n      callvalue\n      dup1\n      iszero\n      tag_1\n      jumpi\n      0x00\n      dup1\n      revert\n    tag_1:\n      pop\n      jumpi(tag_2, lt(calldatasize, 0x04))\n      shr(0xe0, calldataload(0x00))\n      dup1\n      0x8da5cb5b\n      gt\n      tag_13\n      jumpi\n      dup1\n      0x8da5cb5b\n      eq\n      tag_8\n      jumpi\n      dup1\n      0xafbd0197\n      eq\n      tag_9\n      jumpi\n      dup1\n      0xc10eeaec\n      eq\n      tag_10\n      jumpi\n      dup1\n      0xe07f4444\n      eq\n      tag_11\n      jumpi\n      dup1\n      0xe378bd77\n      eq\n      tag_12\n      jumpi\n      jump(tag_2)\n    tag_13:\n      dup1\n      0x205b97cb\n      eq\n      tag_3\n      jumpi\n      dup1\n      0x2b022ba0\n      eq\n      tag_4\n      jumpi\n      dup1\n      0x364344e1\n      eq\n      tag_5\n      jumpi\n      dup1\n      0x48cbf1d1\n      eq\n      tag_6\n      jumpi\n      dup1\n      0x6fcb76a4\n      eq\n      tag_7\n      jumpi\n    tag_2:\n      0x00\n      dup1\n      revert\n        /* \"InformedConsent.sol\":1297:1407  function setPatientId(string memory _newPatientId) public onlyOwner {... */\n    tag_3:\n      tag_14\n      0x04\n      dup1\n      calldatasize\n      sub\n      dup2\n      add\n      swap1\n      tag_15\n      swap2\n      swap1\n      tag_16\n      jump\t// in\n    tag_15:\n      tag_17\n      jump\t// in\n    tag_14:\n      stop\n        /* \"InformedConsent.sol\":1542:1691  function getAllInformedConsents()... */\n    tag_4:\n      tag_18\n      tag_19\n      jump\t// in\n    tag_18:\n      mload(0x40)\n      tag_20\n      swap2\n      swap1\n      tag_21\n      jump\t// in\n    tag_20:\n      mload(0x40)\n      dup1\n      swap2\n      sub\n      swap1\n      return\n        /* \"InformedConsent.sol\":1909:2263  function addInformedConsentRecord(... */\n    tag_5:\n      tag_22\n      0x04\n      dup1\n      calldatasize\n      sub\n      dup2\n      add\n      swap1\n      tag_23\n      swap2\n      swap1\n      tag_24\n      jump\t// in\n    tag_23:\n      tag_25\n      jump\t// in\n    tag_22:\n      stop\n        /* \"InformedConsent.sol\":2471:2632  function getConsentsByObject(... */\n    tag_6:\n      tag_26\n      0x04\n      dup1\n      calldatasize\n      sub\n      dup2\n      add\n      swap1\n      tag_27\n      swap2\n      swap1\n      tag_16\n      jump\t// in\n    tag_27:\n      tag_28\n      jump\t// in\n    tag_26:\n      mload(0x40)\n      tag_29\n      swap2\n      swap1\n      tag_21\n      jump\t// in\n    tag_29:\n      mload(0x40)\n      dup1\n      swap2\n      sub\n      swap1\n      return\n        /* \"InformedConsent.sol\":3770:3930  function getConsentsForUpdate()... */\n    tag_7:\n      tag_30\n      tag_31\n      jump\t// in\n    tag_30:\n      mload(0x40)\n      tag_32\n      swap2\n      swap1\n      tag_21\n      jump\t// in\n    tag_32:\n      mload(0x40)\n      dup1\n      swap2\n      sub\n      swap1\n      return\n        /* \"InformedConsent.sol\":299:319  address public owner */\n    tag_8:\n      tag_33\n      tag_34\n      jump\t// in\n    tag_33:\n      mload(0x40)\n      tag_35\n      swap2\n      swap1\n      tag_36\n      jump\t// in\n    tag_35:\n      mload(0x40)\n      dup1\n      swap2\n      sub\n      swap1\n      return\n        /* \"InformedConsent.sol\":3170:3326  function getConsentsForRead()... */\n    tag_9:\n      tag_37\n      tag_38\n      jump\t// in\n    tag_37:\n      mload(0x40)\n      tag_39\n      swap2\n      swap1\n      tag_21\n      jump\t// in\n    tag_39:\n      mload(0x40)\n      dup1\n      swap2\n      sub\n      swap1\n      return\n        /* \"InformedConsent.sol\":4141:4304  function getConsentsBySubject(... */\n    tag_10:\n      tag_40\n      0x04\n      dup1\n      calldatasize\n      sub\n      dup2\n      add\n      swap1\n      tag_41\n      swap2\n      swap1\n      tag_16\n      jump\t// in\n    tag_41:\n      tag_42\n      jump\t// in\n    tag_40:\n      mload(0x40)\n      tag_43\n      swap2\n      swap1\n      tag_21\n      jump\t// in\n    tag_43:\n      mload(0x40)\n      dup1\n      swap2\n      sub\n      swap1\n      return\n        /* \"InformedConsent.sol\":270:293  string public patientId */\n    tag_11:\n      tag_44\n      tag_45\n      jump\t// in\n    tag_44:\n      mload(0x40)\n      tag_46\n      swap2\n      swap1\n      tag_47\n      jump\t// in\n    tag_46:\n      mload(0x40)\n      dup1\n      swap2\n      sub\n      swap1\n      return\n        /* \"InformedConsent.sol\":3468:3626  function getConsentsForWrite()... */\n    tag_12:\n      tag_48\n      tag_49\n      jump\t// in\n    tag_48:\n      mload(0x40)\n      tag_50\n      swap2\n      swap1\n      tag_21\n      jump\t// in\n    tag_50:\n      mload(0x40)\n      dup1\n      swap2\n      sub\n      swap1\n      return\n        /* \"InformedConsent.sol\":1297:1407  function setPatientId(string memory _newPatientId) public onlyOwner {... */\n    tag_17:\n        /* \"InformedConsent.sol\":1121:1126  owner */\n      0x01\n      0x00\n      swap1\n      sload\n      swap1\n      0x0100\n      exp\n      swap1\n      div\n      0xffffffffffffffffffffffffffffffffffffffff\n      and\n        /* \"InformedConsent.sol\":1107:1126  msg.sender == owner */\n      0xffffffffffffffffffffffffffffffffffffffff\n      and\n        /* \"InformedConsent.sol\":1107:1117  msg.sender */\n      caller\n        /* \"InformedConsent.sol\":1107:1126  msg.sender == owner */\n      0xffffffffffffffffffffffffffffffffffffffff\n      and\n      eq\n        /* \"InformedConsent.sol\":1099:1145  require(msg.sender == owner, \"Not Authorized\") */\n      tag_52\n      jumpi\n      mload(0x40)\n      0x08c379a000000000000000000000000000000000000000000000000000000000\n      dup2\n      mstore\n      0x04\n      add\n      tag_53\n      swap1\n      tag_54\n      jump\t// in\n    tag_53:\n      mload(0x40)\n      dup1\n      swap2\n      sub\n      swap1\n      revert\n    tag_52:\n        /* \"InformedConsent.sol\":1387:1400  _newPatientId */\n      dup1\n        /* \"InformedConsent.sol\":1375:1384  patientId */\n      0x00\n        /* \"InformedConsent.sol\":1375:1400  patientId = _newPatientId */\n      swap1\n      dup2\n      tag_56\n      swap2\n      swap1\n      tag_57\n      jump\t// in\n    tag_56:\n      pop\n        /* \"InformedConsent.sol\":1297:1407  function setPatientId(string memory _newPatientId) public onlyOwner {... */\n      pop\n      jump\t// out\n        /* \"InformedConsent.sol\":1542:1691  function getAllInformedConsents()... */\n    tag_19:\n        /* \"InformedConsent.sol\":1621:1645  InformedConsent[] memory */\n      0x60\n        /* \"InformedConsent.sol\":1668:1684  informedConsents */\n      0x02\n        /* \"InformedConsent.sol\":1661:1684  return informedConsents */\n      dup1\n      sload\n      dup1\n      0x20\n      mul\n      0x20\n      add\n      mload(0x40)\n      swap1\n      dup2\n      add\n      0x40\n      mstore\n      dup1\n      swap3\n      swap2\n      swap1\n      dup2\n      dup2\n      mstore\n      0x20\n      add\n      0x00\n      swap1\n    tag_59:\n      dup3\n      dup3\n      lt\n      iszero\n      tag_60\n      jumpi\n      dup4\n      dup3\n      swap1\n      0x00\n      mstore\n      keccak256(0x00, 0x20)\n      swap1\n      0x03\n      mul\n      add\n      mload(0x40)\n      dup1\n      0x60\n      add\n      0x40\n      mstore\n      swap1\n      dup2\n      0x00\n      dup3\n      add\n      dup1\n      sload\n      tag_62\n      swap1\n      tag_63\n      jump\t// in\n    tag_62:\n      dup1\n      0x1f\n      add\n      0x20\n      dup1\n      swap2\n      div\n      mul\n      0x20\n      add\n      mload(0x40)\n      swap1\n      dup2\n      add\n      0x40\n      mstore\n      dup1\n      swap3\n      swap2\n      swap1\n      dup2\n      dup2\n      mstore\n      0x20\n      add\n      dup3\n      dup1\n      sload\n      tag_64\n      swap1\n      tag_63\n      jump\t// in\n    tag_64:\n      dup1\n      iszero\n      tag_65\n      jumpi\n      dup1\n      0x1f\n      lt\n      tag_66\n      jumpi\n      0x0100\n      dup1\n      dup4\n      sload\n      div\n      mul\n      dup4\n      mstore\n      swap2\n      0x20\n      add\n      swap2\n      jump(tag_65)\n    tag_66:\n      dup3\n      add\n      swap2\n      swap1\n      0x00\n      mstore\n      keccak256(0x00, 0x20)\n      swap1\n    tag_67:\n      dup2\n      sload\n      dup2\n      mstore\n      swap1\n      0x01\n      add\n      swap1\n      0x20\n      add\n      dup1\n      dup4\n      gt\n      tag_67\n      jumpi\n      dup3\n      swap1\n      sub\n      0x1f\n      and\n      dup3\n      add\n      swap2\n    tag_65:\n      pop\n      pop\n      pop\n      pop\n      pop\n      dup2\n      mstore\n      0x20\n      add\n      0x01\n      dup3\n      add\n      dup1\n      sload\n      tag_68\n      swap1\n      tag_63\n      jump\t// in\n    tag_68:\n      dup1\n      0x1f\n      add\n      0x20\n      dup1\n      swap2\n      div\n      mul\n      0x20\n      add\n      mload(0x40)\n      swap1\n      dup2\n      add\n      0x40\n      mstore\n      dup1\n      swap3\n      swap2\n      swap1\n      dup2\n      dup2\n      mstore\n      0x20\n      add\n      dup3\n      dup1\n      sload\n      tag_69\n      swap1\n      tag_63\n      jump\t// in\n    tag_69:\n      dup1\n      iszero\n      tag_70\n      jumpi\n      dup1\n      0x1f\n      lt\n      tag_71\n      jumpi\n      0x0100\n      dup1\n      dup4\n      sload\n      div\n      mul\n      dup4\n      mstore\n      swap2\n      0x20\n      add\n      swap2\n      jump(tag_70)\n    tag_71:\n      dup3\n      add\n      swap2\n      swap1\n      0x00\n      mstore\n      keccak256(0x00, 0x20)\n      swap1\n    tag_72:\n      dup2\n      sload\n      dup2\n      mstore\n      swap1\n      0x01\n      add\n      swap1\n      0x20\n      add\n      dup1\n      dup4\n      gt\n      tag_72\n      jumpi\n      dup3\n      swap1\n      sub\n      0x1f\n      and\n      dup3\n      add\n      swap2\n    tag_70:\n      pop\n      pop\n      pop\n      pop\n      pop\n      dup2\n      mstore\n      0x20\n      add\n      0x02\n      dup3\n      add\n      dup1\n      sload\n      tag_73\n      swap1\n      tag_63\n      jump\t// in\n    tag_73:\n      dup1\n      0x1f\n      add\n      0x20\n      dup1\n      swap2\n      div\n      mul\n      0x20\n      add\n      mload(0x40)\n      swap1\n      dup2\n      add\n      0x40\n      mstore\n      dup1\n      swap3\n      swap2\n      swap1\n      dup2\n      dup2\n      mstore\n      0x20\n      add\n      dup3\n      dup1\n      sload\n      tag_74\n      swap1\n      tag_63\n      jump\t// in\n    tag_74:\n      dup1\n      iszero\n      tag_75\n      jumpi\n      dup1\n      0x1f\n      lt\n      tag_76\n      jumpi\n      0x0100\n      dup1\n      dup4\n      sload\n      div\n      mul\n      dup4\n      mstore\n      swap2\n      0x20\n      add\n      swap2\n      jump(tag_75)\n    tag_76:\n      dup3\n      add\n      swap2\n      swap1\n      0x00\n      mstore\n      keccak256(0x00, 0x20)\n      swap1\n    tag_77:\n      dup2\n      sload\n      dup2\n      mstore\n      swap1\n      0x01\n      add\n      swap1\n      0x20\n      add\n      dup1\n      dup4\n      gt\n      tag_77\n      jumpi\n      dup3\n      swap1\n      sub\n      0x1f\n      and\n      dup3\n      add\n      swap2\n    tag_75:\n      pop\n      pop\n      pop\n      pop\n      pop\n      dup2\n      mstore\n      pop\n      pop\n      dup2\n      mstore\n      0x20\n      add\n      swap1\n      0x01\n      add\n      swap1\n      jump(tag_59)\n    tag_60:\n      pop\n      pop\n      pop\n      pop\n      swap1\n      pop\n        /* \"InformedConsent.sol\":1542:1691  function getAllInformedConsents()... */\n      swap1\n      jump\t// out\n        /* \"InformedConsent.sol\":1909:2263  function addInformedConsentRecord(... */\n    tag_25:\n        /* \"InformedConsent.sol\":2060:2093  InformedConsent memory newConsent */\n      0x00\n        /* \"InformedConsent.sol\":2096:2212  InformedConsent({... */\n      mload(0x40)\n      dup1\n      0x60\n      add\n      0x40\n      mstore\n      dup1\n        /* \"InformedConsent.sol\":2135:2143  _subject */\n      dup6\n        /* \"InformedConsent.sol\":2096:2212  InformedConsent({... */\n      dup2\n      mstore\n      0x20\n      add\n        /* \"InformedConsent.sol\":2165:2172  _action */\n      dup5\n        /* \"InformedConsent.sol\":2096:2212  InformedConsent({... */\n      dup2\n      mstore\n      0x20\n      add\n        /* \"InformedConsent.sol\":2194:2201  _object */\n      dup4\n        /* \"InformedConsent.sol\":2096:2212  InformedConsent({... */\n      dup2\n      mstore\n      pop\n        /* \"InformedConsent.sol\":2060:2212  InformedConsent memory newConsent = InformedConsent({... */\n      swap1\n      pop\n        /* \"InformedConsent.sol\":2223:2239  informedConsents */\n      0x02\n        /* \"InformedConsent.sol\":2245:2255  newConsent */\n      dup2\n        /* \"InformedConsent.sol\":2223:2256  informedConsents.push(newConsent) */\n      swap1\n      dup1\n      0x01\n      dup2\n      sload\n      add\n      dup1\n      dup3\n      sstore\n      dup1\n      swap2\n      pop\n      pop\n      0x01\n      swap1\n      sub\n      swap1\n      0x00\n      mstore\n      keccak256(0x00, 0x20)\n      swap1\n      0x03\n      mul\n      add\n      0x00\n      swap1\n      swap2\n      swap1\n      swap2\n      swap1\n      swap2\n      pop\n      0x00\n      dup3\n      add\n      mload\n      dup2\n      0x00\n      add\n      swap1\n      dup2\n      tag_80\n      swap2\n      swap1\n      tag_57\n      jump\t// in\n    tag_80:\n      pop\n      0x20\n      dup3\n      add\n      mload\n      dup2\n      0x01\n      add\n      swap1\n      dup2\n      tag_81\n      swap2\n      swap1\n      tag_57\n      jump\t// in\n    tag_81:\n      pop\n      0x40\n      dup3\n      add\n      mload\n      dup2\n      0x02\n      add\n      swap1\n      dup2\n      tag_82\n      swap2\n      swap1\n      tag_57\n      jump\t// in\n    tag_82:\n      pop\n      pop\n      pop\n        /* \"InformedConsent.sol\":2050:2263  {... */\n      pop\n        /* \"InformedConsent.sol\":1909:2263  function addInformedConsentRecord(... */\n      pop\n      pop\n      pop\n      jump\t// out\n        /* \"InformedConsent.sol\":2471:2632  function getConsentsByObject(... */\n    tag_28:\n        /* \"InformedConsent.sol\":2558:2582  InformedConsent[] memory */\n      0x60\n        /* \"InformedConsent.sol\":2471:2632  function getConsentsByObject(... */\n      swap2\n      swap1\n      pop\n      jump\t// out\n        /* \"InformedConsent.sol\":3770:3930  function getConsentsForUpdate()... */\n    tag_31:\n        /* \"InformedConsent.sol\":3847:3871  InformedConsent[] memory */\n      0x60\n        /* \"InformedConsent.sol\":3894:3923  getConsentsByAction(\"Update\") */\n      tag_85\n      mload(0x40)\n      dup1\n      0x40\n      add\n      0x40\n      mstore\n      dup1\n      0x06\n      dup2\n      mstore\n      0x20\n      add\n      0x5570646174650000000000000000000000000000000000000000000000000000\n      dup2\n      mstore\n      pop\n        /* \"InformedConsent.sol\":3894:3913  getConsentsByAction */\n      tag_86\n        /* \"InformedConsent.sol\":3894:3923  getConsentsByAction(\"Update\") */\n      jump\t// in\n    tag_85:\n        /* \"InformedConsent.sol\":3887:3923  return getConsentsByAction(\"Update\") */\n      swap1\n      pop\n        /* \"InformedConsent.sol\":3770:3930  function getConsentsForUpdate()... */\n      swap1\n      jump\t// out\n        /* \"InformedConsent.sol\":299:319  address public owner */\n    tag_34:\n      0x01\n      0x00\n      swap1\n      sload\n      swap1\n      0x0100\n      exp\n      swap1\n      div\n      0xffffffffffffffffffffffffffffffffffffffff\n      and\n      dup2\n      jump\t// out\n        /* \"InformedConsent.sol\":3170:3326  function getConsentsForRead()... */\n    tag_38:\n        /* \"InformedConsent.sol\":3245:3269  InformedConsent[] memory */\n      0x60\n        /* \"InformedConsent.sol\":3292:3319  getConsentsByAction(\"Read\") */\n      tag_88\n      mload(0x40)\n      dup1\n      0x40\n      add\n      0x40\n      mstore\n      dup1\n      0x04\n      dup2\n      mstore\n      0x20\n      add\n      0x5265616400000000000000000000000000000000000000000000000000000000\n      dup2\n      mstore\n      pop\n        /* \"InformedConsent.sol\":3292:3311  getConsentsByAction */\n      tag_86\n        /* \"InformedConsent.sol\":3292:3319  getConsentsByAction(\"Read\") */\n      jump\t// in\n    tag_88:\n        /* \"InformedConsent.sol\":3285:3319  return getConsentsByAction(\"Read\") */\n      swap1\n      pop\n        /* \"InformedConsent.sol\":3170:3326  function getConsentsForRead()... */\n      swap1\n      jump\t// out\n        /* \"InformedConsent.sol\":4141:4304  function getConsentsBySubject(... */\n    tag_42:\n        /* \"InformedConsent.sol\":4230:4254  InformedConsent[] memory */\n      0x60\n        /* \"InformedConsent.sol\":4141:4304  function getConsentsBySubject(... */\n      swap2\n      swap1\n      pop\n      jump\t// out\n        /* \"InformedConsent.sol\":270:293  string public patientId */\n    tag_45:\n      0x00\n      dup1\n      sload\n      tag_90\n      swap1\n      tag_63\n      jump\t// in\n    tag_90:\n      dup1\n      0x1f\n      add\n      0x20\n      dup1\n      swap2\n      div\n      mul\n      0x20\n      add\n      mload(0x40)\n      swap1\n      dup2\n      add\n      0x40\n      mstore\n      dup1\n      swap3\n      swap2\n      swap1\n      dup2\n      dup2\n      mstore\n      0x20\n      add\n      dup3\n      dup1\n      sload\n      tag_91\n      swap1\n      tag_63\n      jump\t// in\n    tag_91:\n      dup1\n      iszero\n      tag_92\n      jumpi\n      dup1\n      0x1f\n      lt\n      tag_93\n      jumpi\n      0x0100\n      dup1\n      dup4\n      sload\n      div\n      mul\n      dup4\n      mstore\n      swap2\n      0x20\n      add\n      swap2\n      jump(tag_92)\n    tag_93:\n      dup3\n      add\n      swap2\n      swap1\n      0x00\n      mstore\n      keccak256(0x00, 0x20)\n      swap1\n    tag_94:\n      dup2\n      sload\n      dup2\n      mstore\n      swap1\n      0x01\n      add\n      swap1\n      0x20\n      add\n      dup1\n      dup4\n      gt\n      tag_94\n      jumpi\n      dup3\n      swap1\n      sub\n      0x1f\n      and\n      dup3\n      add\n      swap2\n    tag_92:\n      pop\n      pop\n      pop\n      pop\n      pop\n      dup2\n      jump\t// out\n        /* \"InformedConsent.sol\":3468:3626  function getConsentsForWrite()... */\n    tag_49:\n        /* \"InformedConsent.sol\":3544:3568  InformedConsent[] memory */\n      0x60\n        /* \"InformedConsent.sol\":3591:3619  getConsentsByAction(\"Write\") */\n      tag_96\n      mload(0x40)\n      dup1\n      0x40\n      add\n      0x40\n      mstore\n      dup1\n      0x05\n      dup2\n      mstore\n      0x20\n      add\n      0x5772697465000000000000000000000000000000000000000000000000000000\n      dup2\n      mstore\n      pop\n        /* \"InformedConsent.sol\":3591:3610  getConsentsByAction */\n      tag_86\n        /* \"InformedConsent.sol\":3591:3619  getConsentsByAction(\"Write\") */\n      jump\t// in\n    tag_96:\n        /* \"InformedConsent.sol\":3584:3619  return getConsentsByAction(\"Write\") */\n      swap1\n      pop\n        /* \"InformedConsent.sol\":3468:3626  function getConsentsForWrite()... */\n      swap1\n      jump\t// out\n        /* \"InformedConsent.sol\":2867:3029  function getConsentsByAction(... */\n    tag_86:\n        /* \"InformedConsent.sol\":2955:2979  InformedConsent[] memory */\n      0x60\n        /* \"InformedConsent.sol\":2867:3029  function getConsentsByAction(... */\n      swap2\n      swap1\n      pop\n      jump\t// out\n        /* \"#utility.yul\":7:82   */\n    tag_98:\n        /* \"#utility.yul\":40:46   */\n      0x00\n        /* \"#utility.yul\":73:75   */\n      0x40\n        /* \"#utility.yul\":67:76   */\n      mload\n        /* \"#utility.yul\":57:76   */\n      swap1\n      pop\n        /* \"#utility.yul\":7:82   */\n      swap1\n      jump\t// out\n        /* \"#utility.yul\":88:205   */\n    tag_99:\n        /* \"#utility.yul\":197:198   */\n      0x00\n        /* \"#utility.yul\":194:195   */\n      dup1\n        /* \"#utility.yul\":187:199   */\n      revert\n        /* \"#utility.yul\":211:328   */\n    tag_100:\n        /* \"#utility.yul\":320:321   */\n      0x00\n        /* \"#utility.yul\":317:318   */\n      dup1\n        /* \"#utility.yul\":310:322   */\n      revert\n        /* \"#utility.yul\":334:451   */\n    tag_101:\n        /* \"#utility.yul\":443:444   */\n      0x00\n        /* \"#utility.yul\":440:441   */\n      dup1\n        /* \"#utility.yul\":433:445   */\n      revert\n        /* \"#utility.yul\":457:574   */\n    tag_102:\n        /* \"#utility.yul\":566:567   */\n      0x00\n        /* \"#utility.yul\":563:564   */\n      dup1\n        /* \"#utility.yul\":556:568   */\n      revert\n        /* \"#utility.yul\":580:682   */\n    tag_103:\n        /* \"#utility.yul\":621:627   */\n      0x00\n        /* \"#utility.yul\":672:674   */\n      0x1f\n        /* \"#utility.yul\":668:675   */\n      not\n        /* \"#utility.yul\":663:665   */\n      0x1f\n        /* \"#utility.yul\":656:661   */\n      dup4\n        /* \"#utility.yul\":652:666   */\n      add\n        /* \"#utility.yul\":648:676   */\n      and\n        /* \"#utility.yul\":638:676   */\n      swap1\n      pop\n        /* \"#utility.yul\":580:682   */\n      swap2\n      swap1\n      pop\n      jump\t// out\n        /* \"#utility.yul\":688:868   */\n    tag_104:\n        /* \"#utility.yul\":736:813   */\n      0x4e487b7100000000000000000000000000000000000000000000000000000000\n        /* \"#utility.yul\":733:734   */\n      0x00\n        /* \"#utility.yul\":726:814   */\n      mstore\n        /* \"#utility.yul\":833:837   */\n      0x41\n        /* \"#utility.yul\":830:831   */\n      0x04\n        /* \"#utility.yul\":823:838   */\n      mstore\n        /* \"#utility.yul\":857:861   */\n      0x24\n        /* \"#utility.yul\":854:855   */\n      0x00\n        /* \"#utility.yul\":847:862   */\n      revert\n        /* \"#utility.yul\":874:1155   */\n    tag_105:\n        /* \"#utility.yul\":957:984   */\n      tag_155\n        /* \"#utility.yul\":979:983   */\n      dup3\n        /* \"#utility.yul\":957:984   */\n      tag_103\n      jump\t// in\n    tag_155:\n        /* \"#utility.yul\":949:955   */\n      dup2\n        /* \"#utility.yul\":945:985   */\n      add\n        /* \"#utility.yul\":1087:1093   */\n      dup2\n        /* \"#utility.yul\":1075:1085   */\n      dup2\n        /* \"#utility.yul\":1072:1094   */\n      lt\n        /* \"#utility.yul\":1051:1069   */\n      0xffffffffffffffff\n        /* \"#utility.yul\":1039:1049   */\n      dup3\n        /* \"#utility.yul\":1036:1070   */\n      gt\n        /* \"#utility.yul\":1033:1095   */\n      or\n        /* \"#utility.yul\":1030:1118   */\n      iszero\n      tag_156\n      jumpi\n        /* \"#utility.yul\":1098:1116   */\n      tag_157\n      tag_104\n      jump\t// in\n    tag_157:\n        /* \"#utility.yul\":1030:1118   */\n    tag_156:\n        /* \"#utility.yul\":1138:1148   */\n      dup1\n        /* \"#utility.yul\":1134:1136   */\n      0x40\n        /* \"#utility.yul\":1127:1149   */\n      mstore\n        /* \"#utility.yul\":917:1155   */\n      pop\n        /* \"#utility.yul\":874:1155   */\n      pop\n      pop\n      jump\t// out\n        /* \"#utility.yul\":1161:1290   */\n    tag_106:\n        /* \"#utility.yul\":1195:1201   */\n      0x00\n        /* \"#utility.yul\":1222:1242   */\n      tag_159\n      tag_98\n      jump\t// in\n    tag_159:\n        /* \"#utility.yul\":1212:1242   */\n      swap1\n      pop\n        /* \"#utility.yul\":1251:1284   */\n      tag_160\n        /* \"#utility.yul\":1279:1283   */\n      dup3\n        /* \"#utility.yul\":1271:1277   */\n      dup3\n        /* \"#utility.yul\":1251:1284   */\n      tag_105\n      jump\t// in\n    tag_160:\n        /* \"#utility.yul\":1161:1290   */\n      swap2\n      swap1\n      pop\n      jump\t// out\n        /* \"#utility.yul\":1296:1604   */\n    tag_107:\n        /* \"#utility.yul\":1358:1362   */\n      0x00\n        /* \"#utility.yul\":1448:1466   */\n      0xffffffffffffffff\n        /* \"#utility.yul\":1440:1446   */\n      dup3\n        /* \"#utility.yul\":1437:1467   */\n      gt\n        /* \"#utility.yul\":1434:1490   */\n      iszero\n      tag_162\n      jumpi\n        /* \"#utility.yul\":1470:1488   */\n      tag_163\n      tag_104\n      jump\t// in\n    tag_163:\n        /* \"#utility.yul\":1434:1490   */\n    tag_162:\n        /* \"#utility.yul\":1508:1537   */\n      tag_164\n        /* \"#utility.yul\":1530:1536   */\n      dup3\n        /* \"#utility.yul\":1508:1537   */\n      tag_103\n      jump\t// in\n    tag_164:\n        /* \"#utility.yul\":1500:1537   */\n      swap1\n      pop\n        /* \"#utility.yul\":1592:1596   */\n      0x20\n        /* \"#utility.yul\":1586:1590   */\n      dup2\n        /* \"#utility.yul\":1582:1597   */\n      add\n        /* \"#utility.yul\":1574:1597   */\n      swap1\n      pop\n        /* \"#utility.yul\":1296:1604   */\n      swap2\n      swap1\n      pop\n      jump\t// out\n        /* \"#utility.yul\":1610:1756   */\n    tag_108:\n        /* \"#utility.yul\":1707:1713   */\n      dup3\n        /* \"#utility.yul\":1702:1705   */\n      dup2\n        /* \"#utility.yul\":1697:1700   */\n      dup4\n        /* \"#utility.yul\":1684:1714   */\n      calldatacopy\n        /* \"#utility.yul\":1748:1749   */\n      0x00\n        /* \"#utility.yul\":1739:1745   */\n      dup4\n        /* \"#utility.yul\":1734:1737   */\n      dup4\n        /* \"#utility.yul\":1730:1746   */\n      add\n        /* \"#utility.yul\":1723:1750   */\n      mstore\n        /* \"#utility.yul\":1610:1756   */\n      pop\n      pop\n      pop\n      jump\t// out\n        /* \"#utility.yul\":1762:2187   */\n    tag_109:\n        /* \"#utility.yul\":1840:1845   */\n      0x00\n        /* \"#utility.yul\":1865:1931   */\n      tag_167\n        /* \"#utility.yul\":1881:1930   */\n      tag_168\n        /* \"#utility.yul\":1923:1929   */\n      dup5\n        /* \"#utility.yul\":1881:1930   */\n      tag_107\n      jump\t// in\n    tag_168:\n        /* \"#utility.yul\":1865:1931   */\n      tag_106\n      jump\t// in\n    tag_167:\n        /* \"#utility.yul\":1856:1931   */\n      swap1\n      pop\n        /* \"#utility.yul\":1954:1960   */\n      dup3\n        /* \"#utility.yul\":1947:1952   */\n      dup2\n        /* \"#utility.yul\":1940:1961   */\n      mstore\n        /* \"#utility.yul\":1992:1996   */\n      0x20\n        /* \"#utility.yul\":1985:1990   */\n      dup2\n        /* \"#utility.yul\":1981:1997   */\n      add\n        /* \"#utility.yul\":2030:2033   */\n      dup5\n        /* \"#utility.yul\":2021:2027   */\n      dup5\n        /* \"#utility.yul\":2016:2019   */\n      dup5\n        /* \"#utility.yul\":2012:2028   */\n      add\n        /* \"#utility.yul\":2009:2034   */\n      gt\n        /* \"#utility.yul\":2006:2118   */\n      iszero\n      tag_169\n      jumpi\n        /* \"#utility.yul\":2037:2116   */\n      tag_170\n      tag_102\n      jump\t// in\n    tag_170:\n        /* \"#utility.yul\":2006:2118   */\n    tag_169:\n        /* \"#utility.yul\":2127:2181   */\n      tag_171\n        /* \"#utility.yul\":2174:2180   */\n      dup5\n        /* \"#utility.yul\":2169:2172   */\n      dup3\n        /* \"#utility.yul\":2164:2167   */\n      dup6\n        /* \"#utility.yul\":2127:2181   */\n      tag_108\n      jump\t// in\n    tag_171:\n        /* \"#utility.yul\":1846:2187   */\n      pop\n        /* \"#utility.yul\":1762:2187   */\n      swap4\n      swap3\n      pop\n      pop\n      pop\n      jump\t// out\n        /* \"#utility.yul\":2207:2547   */\n    tag_110:\n        /* \"#utility.yul\":2263:2268   */\n      0x00\n        /* \"#utility.yul\":2312:2315   */\n      dup3\n        /* \"#utility.yul\":2305:2309   */\n      0x1f\n        /* \"#utility.yul\":2297:2303   */\n      dup4\n        /* \"#utility.yul\":2293:2310   */\n      add\n        /* \"#utility.yul\":2289:2316   */\n      slt\n        /* \"#utility.yul\":2279:2401   */\n      tag_173\n      jumpi\n        /* \"#utility.yul\":2320:2399   */\n      tag_174\n      tag_101\n      jump\t// in\n    tag_174:\n        /* \"#utility.yul\":2279:2401   */\n    tag_173:\n        /* \"#utility.yul\":2437:2443   */\n      dup2\n        /* \"#utility.yul\":2424:2444   */\n      calldataload\n        /* \"#utility.yul\":2462:2541   */\n      tag_175\n        /* \"#utility.yul\":2537:2540   */\n      dup5\n        /* \"#utility.yul\":2529:2535   */\n      dup3\n        /* \"#utility.yul\":2522:2526   */\n      0x20\n        /* \"#utility.yul\":2514:2520   */\n      dup7\n        /* \"#utility.yul\":2510:2527   */\n      add\n        /* \"#utility.yul\":2462:2541   */\n      tag_109\n      jump\t// in\n    tag_175:\n        /* \"#utility.yul\":2453:2541   */\n      swap2\n      pop\n        /* \"#utility.yul\":2269:2547   */\n      pop\n        /* \"#utility.yul\":2207:2547   */\n      swap3\n      swap2\n      pop\n      pop\n      jump\t// out\n        /* \"#utility.yul\":2553:3062   */\n    tag_16:\n        /* \"#utility.yul\":2622:2628   */\n      0x00\n        /* \"#utility.yul\":2671:2673   */\n      0x20\n        /* \"#utility.yul\":2659:2668   */\n      dup3\n        /* \"#utility.yul\":2650:2657   */\n      dup5\n        /* \"#utility.yul\":2646:2669   */\n      sub\n        /* \"#utility.yul\":2642:2674   */\n      slt\n        /* \"#utility.yul\":2639:2758   */\n      iszero\n      tag_177\n      jumpi\n        /* \"#utility.yul\":2677:2756   */\n      tag_178\n      tag_99\n      jump\t// in\n    tag_178:\n        /* \"#utility.yul\":2639:2758   */\n    tag_177:\n        /* \"#utility.yul\":2825:2826   */\n      0x00\n        /* \"#utility.yul\":2814:2823   */\n      dup3\n        /* \"#utility.yul\":2810:2827   */\n      add\n        /* \"#utility.yul\":2797:2828   */\n      calldataload\n        /* \"#utility.yul\":2855:2873   */\n      0xffffffffffffffff\n        /* \"#utility.yul\":2847:2853   */\n      dup2\n        /* \"#utility.yul\":2844:2874   */\n      gt\n        /* \"#utility.yul\":2841:2958   */\n      iszero\n      tag_179\n      jumpi\n        /* \"#utility.yul\":2877:2956   */\n      tag_180\n      tag_100\n      jump\t// in\n    tag_180:\n        /* \"#utility.yul\":2841:2958   */\n    tag_179:\n        /* \"#utility.yul\":2982:3045   */\n      tag_181\n        /* \"#utility.yul\":3037:3044   */\n      dup5\n        /* \"#utility.yul\":3028:3034   */\n      dup3\n        /* \"#utility.yul\":3017:3026   */\n      dup6\n        /* \"#utility.yul\":3013:3035   */\n      add\n        /* \"#utility.yul\":2982:3045   */\n      tag_110\n      jump\t// in\n    tag_181:\n        /* \"#utility.yul\":2972:3045   */\n      swap2\n      pop\n        /* \"#utility.yul\":2768:3055   */\n      pop\n        /* \"#utility.yul\":2553:3062   */\n      swap3\n      swap2\n      pop\n      pop\n      jump\t// out\n        /* \"#utility.yul\":3068:3213   */\n    tag_111:\n        /* \"#utility.yul\":3166:3172   */\n      0x00\n        /* \"#utility.yul\":3200:3205   */\n      dup2\n        /* \"#utility.yul\":3194:3206   */\n      mload\n        /* \"#utility.yul\":3184:3206   */\n      swap1\n      pop\n        /* \"#utility.yul\":3068:3213   */\n      swap2\n      swap1\n      pop\n      jump\t// out\n        /* \"#utility.yul\":3219:3434   */\n    tag_112:\n        /* \"#utility.yul\":3349:3360   */\n      0x00\n        /* \"#utility.yul\":3383:3389   */\n      dup3\n        /* \"#utility.yul\":3378:3381   */\n      dup3\n        /* \"#utility.yul\":3371:3390   */\n      mstore\n        /* \"#utility.yul\":3423:3427   */\n      0x20\n        /* \"#utility.yul\":3418:3421   */\n      dup3\n        /* \"#utility.yul\":3414:3428   */\n      add\n        /* \"#utility.yul\":3399:3428   */\n      swap1\n      pop\n        /* \"#utility.yul\":3219:3434   */\n      swap3\n      swap2\n      pop\n      pop\n      jump\t// out\n        /* \"#utility.yul\":3440:3603   */\n    tag_113:\n        /* \"#utility.yul\":3538:3542   */\n      0x00\n        /* \"#utility.yul\":3561:3564   */\n      dup2\n        /* \"#utility.yul\":3553:3564   */\n      swap1\n      pop\n        /* \"#utility.yul\":3591:3595   */\n      0x20\n        /* \"#utility.yul\":3586:3589   */\n      dup3\n        /* \"#utility.yul\":3582:3596   */\n      add\n        /* \"#utility.yul\":3574:3596   */\n      swap1\n      pop\n        /* \"#utility.yul\":3440:3603   */\n      swap2\n      swap1\n      pop\n      jump\t// out\n        /* \"#utility.yul\":3609:3708   */\n    tag_114:\n        /* \"#utility.yul\":3661:3667   */\n      0x00\n        /* \"#utility.yul\":3695:3700   */\n      dup2\n        /* \"#utility.yul\":3689:3701   */\n      mload\n        /* \"#utility.yul\":3679:3701   */\n      swap1\n      pop\n        /* \"#utility.yul\":3609:3708   */\n      swap2\n      swap1\n      pop\n      jump\t// out\n        /* \"#utility.yul\":3714:3873   */\n    tag_115:\n        /* \"#utility.yul\":3788:3799   */\n      0x00\n        /* \"#utility.yul\":3822:3828   */\n      dup3\n        /* \"#utility.yul\":3817:3820   */\n      dup3\n        /* \"#utility.yul\":3810:3829   */\n      mstore\n        /* \"#utility.yul\":3862:3866   */\n      0x20\n        /* \"#utility.yul\":3857:3860   */\n      dup3\n        /* \"#utility.yul\":3853:3867   */\n      add\n        /* \"#utility.yul\":3838:3867   */\n      swap1\n      pop\n        /* \"#utility.yul\":3714:3873   */\n      swap3\n      swap2\n      pop\n      pop\n      jump\t// out\n        /* \"#utility.yul\":3879:4125   */\n    tag_116:\n        /* \"#utility.yul\":3960:3961   */\n      0x00\n        /* \"#utility.yul\":3970:4083   */\n    tag_188:\n        /* \"#utility.yul\":3984:3990   */\n      dup4\n        /* \"#utility.yul\":3981:3982   */\n      dup2\n        /* \"#utility.yul\":3978:3991   */\n      lt\n        /* \"#utility.yul\":3970:4083   */\n      iszero\n      tag_190\n      jumpi\n        /* \"#utility.yul\":4069:4070   */\n      dup1\n        /* \"#utility.yul\":4064:4067   */\n      dup3\n        /* \"#utility.yul\":4060:4071   */\n      add\n        /* \"#utility.yul\":4054:4072   */\n      mload\n        /* \"#utility.yul\":4050:4051   */\n      dup2\n        /* \"#utility.yul\":4045:4048   */\n      dup5\n        /* \"#utility.yul\":4041:4052   */\n      add\n        /* \"#utility.yul\":4034:4073   */\n      mstore\n        /* \"#utility.yul\":4006:4008   */\n      0x20\n        /* \"#utility.yul\":4003:4004   */\n      dup2\n        /* \"#utility.yul\":3999:4009   */\n      add\n        /* \"#utility.yul\":3994:4009   */\n      swap1\n      pop\n        /* \"#utility.yul\":3970:4083   */\n      jump(tag_188)\n    tag_190:\n        /* \"#utility.yul\":4117:4118   */\n      0x00\n        /* \"#utility.yul\":4108:4114   */\n      dup5\n        /* \"#utility.yul\":4103:4106   */\n      dup5\n        /* \"#utility.yul\":4099:4115   */\n      add\n        /* \"#utility.yul\":4092:4119   */\n      mstore\n        /* \"#utility.yul\":3941:4125   */\n      pop\n        /* \"#utility.yul\":3879:4125   */\n      pop\n      pop\n      pop\n      jump\t// out\n        /* \"#utility.yul\":4131:4488   */\n    tag_117:\n        /* \"#utility.yul\":4209:4212   */\n      0x00\n        /* \"#utility.yul\":4237:4276   */\n      tag_192\n        /* \"#utility.yul\":4270:4275   */\n      dup3\n        /* \"#utility.yul\":4237:4276   */\n      tag_114\n      jump\t// in\n    tag_192:\n        /* \"#utility.yul\":4292:4353   */\n      tag_193\n        /* \"#utility.yul\":4346:4352   */\n      dup2\n        /* \"#utility.yul\":4341:4344   */\n      dup6\n        /* \"#utility.yul\":4292:4353   */\n      tag_115\n      jump\t// in\n    tag_193:\n        /* \"#utility.yul\":4285:4353   */\n      swap4\n      pop\n        /* \"#utility.yul\":4362:4427   */\n      tag_194\n        /* \"#utility.yul\":4420:4426   */\n      dup2\n        /* \"#utility.yul\":4415:4418   */\n      dup6\n        /* \"#utility.yul\":4408:4412   */\n      0x20\n        /* \"#utility.yul\":4401:4406   */\n      dup7\n        /* \"#utility.yul\":4397:4413   */\n      add\n        /* \"#utility.yul\":4362:4427   */\n      tag_116\n      jump\t// in\n    tag_194:\n        /* \"#utility.yul\":4452:4481   */\n      tag_195\n        /* \"#utility.yul\":4474:4480   */\n      dup2\n        /* \"#utility.yul\":4452:4481   */\n      tag_103\n      jump\t// in\n    tag_195:\n        /* \"#utility.yul\":4447:4450   */\n      dup5\n        /* \"#utility.yul\":4443:4482   */\n      add\n        /* \"#utility.yul\":4436:4482   */\n      swap2\n      pop\n        /* \"#utility.yul\":4213:4488   */\n      pop\n        /* \"#utility.yul\":4131:4488   */\n      swap3\n      swap2\n      pop\n      pop\n      jump\t// out\n        /* \"#utility.yul\":4598:5529   */\n    tag_118:\n        /* \"#utility.yul\":4719:4722   */\n      0x00\n        /* \"#utility.yul\":4755:4759   */\n      0x60\n        /* \"#utility.yul\":4750:4753   */\n      dup4\n        /* \"#utility.yul\":4746:4760   */\n      add\n        /* \"#utility.yul\":4845:4849   */\n      0x00\n        /* \"#utility.yul\":4838:4843   */\n      dup4\n        /* \"#utility.yul\":4834:4850   */\n      add\n        /* \"#utility.yul\":4828:4851   */\n      mload\n        /* \"#utility.yul\":4898:4901   */\n      dup5\n        /* \"#utility.yul\":4892:4896   */\n      dup3\n        /* \"#utility.yul\":4888:4902   */\n      sub\n        /* \"#utility.yul\":4881:4885   */\n      0x00\n        /* \"#utility.yul\":4876:4879   */\n      dup7\n        /* \"#utility.yul\":4872:4886   */\n      add\n        /* \"#utility.yul\":4865:4903   */\n      mstore\n        /* \"#utility.yul\":4924:4997   */\n      tag_197\n        /* \"#utility.yul\":4992:4996   */\n      dup3\n        /* \"#utility.yul\":4978:4990   */\n      dup3\n        /* \"#utility.yul\":4924:4997   */\n      tag_117\n      jump\t// in\n    tag_197:\n        /* \"#utility.yul\":4916:4997   */\n      swap2\n      pop\n        /* \"#utility.yul\":4770:5008   */\n      pop\n        /* \"#utility.yul\":5092:5096   */\n      0x20\n        /* \"#utility.yul\":5085:5090   */\n      dup4\n        /* \"#utility.yul\":5081:5097   */\n      add\n        /* \"#utility.yul\":5075:5098   */\n      mload\n        /* \"#utility.yul\":5145:5148   */\n      dup5\n        /* \"#utility.yul\":5139:5143   */\n      dup3\n        /* \"#utility.yul\":5135:5149   */\n      sub\n        /* \"#utility.yul\":5128:5132   */\n      0x20\n        /* \"#utility.yul\":5123:5126   */\n      dup7\n        /* \"#utility.yul\":5119:5133   */\n      add\n        /* \"#utility.yul\":5112:5150   */\n      mstore\n        /* \"#utility.yul\":5171:5244   */\n      tag_198\n        /* \"#utility.yul\":5239:5243   */\n      dup3\n        /* \"#utility.yul\":5225:5237   */\n      dup3\n        /* \"#utility.yul\":5171:5244   */\n      tag_117\n      jump\t// in\n    tag_198:\n        /* \"#utility.yul\":5163:5244   */\n      swap2\n      pop\n        /* \"#utility.yul\":5018:5255   */\n      pop\n        /* \"#utility.yul\":5339:5343   */\n      0x40\n        /* \"#utility.yul\":5332:5337   */\n      dup4\n        /* \"#utility.yul\":5328:5344   */\n      add\n        /* \"#utility.yul\":5322:5345   */\n      mload\n        /* \"#utility.yul\":5392:5395   */\n      dup5\n        /* \"#utility.yul\":5386:5390   */\n      dup3\n        /* \"#utility.yul\":5382:5396   */\n      sub\n        /* \"#utility.yul\":5375:5379   */\n      0x40\n        /* \"#utility.yul\":5370:5373   */\n      dup7\n        /* \"#utility.yul\":5366:5380   */\n      add\n        /* \"#utility.yul\":5359:5397   */\n      mstore\n        /* \"#utility.yul\":5418:5491   */\n      tag_199\n        /* \"#utility.yul\":5486:5490   */\n      dup3\n        /* \"#utility.yul\":5472:5484   */\n      dup3\n        /* \"#utility.yul\":5418:5491   */\n      tag_117\n      jump\t// in\n    tag_199:\n        /* \"#utility.yul\":5410:5491   */\n      swap2\n      pop\n        /* \"#utility.yul\":5265:5502   */\n      pop\n        /* \"#utility.yul\":5519:5523   */\n      dup1\n        /* \"#utility.yul\":5512:5523   */\n      swap2\n      pop\n        /* \"#utility.yul\":4724:5529   */\n      pop\n        /* \"#utility.yul\":4598:5529   */\n      swap3\n      swap2\n      pop\n      pop\n      jump\t// out\n        /* \"#utility.yul\":5535:5815   */\n    tag_119:\n        /* \"#utility.yul\":5666:5676   */\n      0x00\n        /* \"#utility.yul\":5701:5809   */\n      tag_201\n        /* \"#utility.yul\":5805:5808   */\n      dup4\n        /* \"#utility.yul\":5797:5803   */\n      dup4\n        /* \"#utility.yul\":5701:5809   */\n      tag_118\n      jump\t// in\n    tag_201:\n        /* \"#utility.yul\":5687:5809   */\n      swap1\n      pop\n        /* \"#utility.yul\":5535:5815   */\n      swap3\n      swap2\n      pop\n      pop\n      jump\t// out\n        /* \"#utility.yul\":5821:5965   */\n    tag_120:\n        /* \"#utility.yul\":5922:5926   */\n      0x00\n        /* \"#utility.yul\":5954:5958   */\n      0x20\n        /* \"#utility.yul\":5949:5952   */\n      dup3\n        /* \"#utility.yul\":5945:5959   */\n      add\n        /* \"#utility.yul\":5937:5959   */\n      swap1\n      pop\n        /* \"#utility.yul\":5821:5965   */\n      swap2\n      swap1\n      pop\n      jump\t// out\n        /* \"#utility.yul\":6079:7238   */\n    tag_121:\n        /* \"#utility.yul\":6260:6263   */\n      0x00\n        /* \"#utility.yul\":6289:6374   */\n      tag_204\n        /* \"#utility.yul\":6368:6373   */\n      dup3\n        /* \"#utility.yul\":6289:6374   */\n      tag_111\n      jump\t// in\n    tag_204:\n        /* \"#utility.yul\":6390:6507   */\n      tag_205\n        /* \"#utility.yul\":6500:6506   */\n      dup2\n        /* \"#utility.yul\":6495:6498   */\n      dup6\n        /* \"#utility.yul\":6390:6507   */\n      tag_112\n      jump\t// in\n    tag_205:\n        /* \"#utility.yul\":6383:6507   */\n      swap4\n      pop\n        /* \"#utility.yul\":6533:6536   */\n      dup4\n        /* \"#utility.yul\":6578:6582   */\n      0x20\n        /* \"#utility.yul\":6570:6576   */\n      dup3\n        /* \"#utility.yul\":6566:6583   */\n      mul\n        /* \"#utility.yul\":6561:6564   */\n      dup6\n        /* \"#utility.yul\":6557:6584   */\n      add\n        /* \"#utility.yul\":6608:6695   */\n      tag_206\n        /* \"#utility.yul\":6689:6694   */\n      dup6\n        /* \"#utility.yul\":6608:6695   */\n      tag_113\n      jump\t// in\n    tag_206:\n        /* \"#utility.yul\":6718:6725   */\n      dup1\n        /* \"#utility.yul\":6749:6750   */\n      0x00\n        /* \"#utility.yul\":6734:7193   */\n    tag_207:\n        /* \"#utility.yul\":6759:6765   */\n      dup6\n        /* \"#utility.yul\":6756:6757   */\n      dup2\n        /* \"#utility.yul\":6753:6766   */\n      lt\n        /* \"#utility.yul\":6734:7193   */\n      iszero\n      tag_209\n      jumpi\n        /* \"#utility.yul\":6830:6839   */\n      dup5\n        /* \"#utility.yul\":6824:6828   */\n      dup5\n        /* \"#utility.yul\":6820:6840   */\n      sub\n        /* \"#utility.yul\":6815:6818   */\n      dup10\n        /* \"#utility.yul\":6808:6841   */\n      mstore\n        /* \"#utility.yul\":6881:6887   */\n      dup2\n        /* \"#utility.yul\":6875:6888   */\n      mload\n        /* \"#utility.yul\":6909:7035   */\n      tag_210\n        /* \"#utility.yul\":7030:7034   */\n      dup6\n        /* \"#utility.yul\":7015:7028   */\n      dup3\n        /* \"#utility.yul\":6909:7035   */\n      tag_119\n      jump\t// in\n    tag_210:\n        /* \"#utility.yul\":6901:7035   */\n      swap5\n      pop\n        /* \"#utility.yul\":7058:7149   */\n      tag_211\n        /* \"#utility.yul\":7142:7148   */\n      dup4\n        /* \"#utility.yul\":7058:7149   */\n      tag_120\n      jump\t// in\n    tag_211:\n        /* \"#utility.yul\":7048:7149   */\n      swap3\n      pop\n        /* \"#utility.yul\":7178:7182   */\n      0x20\n        /* \"#utility.yul\":7173:7176   */\n      dup11\n        /* \"#utility.yul\":7169:7183   */\n      add\n        /* \"#utility.yul\":7162:7183   */\n      swap10\n      pop\n        /* \"#utility.yul\":6794:7193   */\n      pop\n        /* \"#utility.yul\":6781:6782   */\n      0x01\n        /* \"#utility.yul\":6778:6779   */\n      dup2\n        /* \"#utility.yul\":6774:6783   */\n      add\n        /* \"#utility.yul\":6769:6783   */\n      swap1\n      pop\n        /* \"#utility.yul\":6734:7193   */\n      jump(tag_207)\n    tag_209:\n        /* \"#utility.yul\":6738:6752   */\n      pop\n        /* \"#utility.yul\":7209:7213   */\n      dup3\n        /* \"#utility.yul\":7202:7213   */\n      swap8\n      pop\n        /* \"#utility.yul\":7229:7232   */\n      dup8\n        /* \"#utility.yul\":7222:7232   */\n      swap6\n      pop\n        /* \"#utility.yul\":6265:7238   */\n      pop\n      pop\n      pop\n      pop\n      pop\n        /* \"#utility.yul\":6079:7238   */\n      swap3\n      swap2\n      pop\n      pop\n      jump\t// out\n        /* \"#utility.yul\":7244:7741   */\n    tag_21:\n        /* \"#utility.yul\":7449:7453   */\n      0x00\n        /* \"#utility.yul\":7487:7489   */\n      0x20\n        /* \"#utility.yul\":7476:7485   */\n      dup3\n        /* \"#utility.yul\":7472:7490   */\n      add\n        /* \"#utility.yul\":7464:7490   */\n      swap1\n      pop\n        /* \"#utility.yul\":7536:7545   */\n      dup2\n        /* \"#utility.yul\":7530:7534   */\n      dup2\n        /* \"#utility.yul\":7526:7546   */\n      sub\n        /* \"#utility.yul\":7522:7523   */\n      0x00\n        /* \"#utility.yul\":7511:7520   */\n      dup4\n        /* \"#utility.yul\":7507:7524   */\n      add\n        /* \"#utility.yul\":7500:7547   */\n      mstore\n        /* \"#utility.yul\":7564:7734   */\n      tag_213\n        /* \"#utility.yul\":7729:7733   */\n      dup2\n        /* \"#utility.yul\":7720:7726   */\n      dup5\n        /* \"#utility.yul\":7564:7734   */\n      tag_121\n      jump\t// in\n    tag_213:\n        /* \"#utility.yul\":7556:7734   */\n      swap1\n      pop\n        /* \"#utility.yul\":7244:7741   */\n      swap3\n      swap2\n      pop\n      pop\n      jump\t// out\n        /* \"#utility.yul\":7747:8906   */\n    tag_24:\n        /* \"#utility.yul\":7854:7860   */\n      0x00\n        /* \"#utility.yul\":7862:7868   */\n      dup1\n        /* \"#utility.yul\":7870:7876   */\n      0x00\n        /* \"#utility.yul\":7919:7921   */\n      0x60\n        /* \"#utility.yul\":7907:7916   */\n      dup5\n        /* \"#utility.yul\":7898:7905   */\n      dup7\n        /* \"#utility.yul\":7894:7917   */\n      sub\n        /* \"#utility.yul\":7890:7922   */\n      slt\n        /* \"#utility.yul\":7887:8006   */\n      iszero\n      tag_215\n      jumpi\n        /* \"#utility.yul\":7925:8004   */\n      tag_216\n      tag_99\n      jump\t// in\n    tag_216:\n        /* \"#utility.yul\":7887:8006   */\n    tag_215:\n        /* \"#utility.yul\":8073:8074   */\n      0x00\n        /* \"#utility.yul\":8062:8071   */\n      dup5\n        /* \"#utility.yul\":8058:8075   */\n      add\n        /* \"#utility.yul\":8045:8076   */\n      calldataload\n        /* \"#utility.yul\":8103:8121   */\n      0xffffffffffffffff\n        /* \"#utility.yul\":8095:8101   */\n      dup2\n        /* \"#utility.yul\":8092:8122   */\n      gt\n        /* \"#utility.yul\":8089:8206   */\n      iszero\n      tag_217\n      jumpi\n        /* \"#utility.yul\":8125:8204   */\n      tag_218\n      tag_100\n      jump\t// in\n    tag_218:\n        /* \"#utility.yul\":8089:8206   */\n    tag_217:\n        /* \"#utility.yul\":8230:8293   */\n      tag_219\n        /* \"#utility.yul\":8285:8292   */\n      dup7\n        /* \"#utility.yul\":8276:8282   */\n      dup3\n        /* \"#utility.yul\":8265:8274   */\n      dup8\n        /* \"#utility.yul\":8261:8283   */\n      add\n        /* \"#utility.yul\":8230:8293   */\n      tag_110\n      jump\t// in\n    tag_219:\n        /* \"#utility.yul\":8220:8293   */\n      swap4\n      pop\n        /* \"#utility.yul\":8016:8303   */\n      pop\n        /* \"#utility.yul\":8370:8372   */\n      0x20\n        /* \"#utility.yul\":8359:8368   */\n      dup5\n        /* \"#utility.yul\":8355:8373   */\n      add\n        /* \"#utility.yul\":8342:8374   */\n      calldataload\n        /* \"#utility.yul\":8401:8419   */\n      0xffffffffffffffff\n        /* \"#utility.yul\":8393:8399   */\n      dup2\n        /* \"#utility.yul\":8390:8420   */\n      gt\n        /* \"#utility.yul\":8387:8504   */\n      iszero\n      tag_220\n      jumpi\n        /* \"#utility.yul\":8423:8502   */\n      tag_221\n      tag_100\n      jump\t// in\n    tag_221:\n        /* \"#utility.yul\":8387:8504   */\n    tag_220:\n        /* \"#utility.yul\":8528:8591   */\n      tag_222\n        /* \"#utility.yul\":8583:8590   */\n      dup7\n        /* \"#utility.yul\":8574:8580   */\n      dup3\n        /* \"#utility.yul\":8563:8572   */\n      dup8\n        /* \"#utility.yul\":8559:8581   */\n      add\n        /* \"#utility.yul\":8528:8591   */\n      tag_110\n      jump\t// in\n    tag_222:\n        /* \"#utility.yul\":8518:8591   */\n      swap3\n      pop\n        /* \"#utility.yul\":8313:8601   */\n      pop\n        /* \"#utility.yul\":8668:8670   */\n      0x40\n        /* \"#utility.yul\":8657:8666   */\n      dup5\n        /* \"#utility.yul\":8653:8671   */\n      add\n        /* \"#utility.yul\":8640:8672   */\n      calldataload\n        /* \"#utility.yul\":8699:8717   */\n      0xffffffffffffffff\n        /* \"#utility.yul\":8691:8697   */\n      dup2\n        /* \"#utility.yul\":8688:8718   */\n      gt\n        /* \"#utility.yul\":8685:8802   */\n      iszero\n      tag_223\n      jumpi\n        /* \"#utility.yul\":8721:8800   */\n      tag_224\n      tag_100\n      jump\t// in\n    tag_224:\n        /* \"#utility.yul\":8685:8802   */\n    tag_223:\n        /* \"#utility.yul\":8826:8889   */\n      tag_225\n        /* \"#utility.yul\":8881:8888   */\n      dup7\n        /* \"#utility.yul\":8872:8878   */\n      dup3\n        /* \"#utility.yul\":8861:8870   */\n      dup8\n        /* \"#utility.yul\":8857:8879   */\n      add\n        /* \"#utility.yul\":8826:8889   */\n      tag_110\n      jump\t// in\n    tag_225:\n        /* \"#utility.yul\":8816:8889   */\n      swap2\n      pop\n        /* \"#utility.yul\":8611:8899   */\n      pop\n        /* \"#utility.yul\":7747:8906   */\n      swap3\n      pop\n      swap3\n      pop\n      swap3\n      jump\t// out\n        /* \"#utility.yul\":8912:9038   */\n    tag_122:\n        /* \"#utility.yul\":8949:8956   */\n      0x00\n        /* \"#utility.yul\":8989:9031   */\n      0xffffffffffffffffffffffffffffffffffffffff\n        /* \"#utility.yul\":8982:8987   */\n      dup3\n        /* \"#utility.yul\":8978:9032   */\n      and\n        /* \"#utility.yul\":8967:9032   */\n      swap1\n      pop\n        /* \"#utility.yul\":8912:9038   */\n      swap2\n      swap1\n      pop\n      jump\t// out\n        /* \"#utility.yul\":9044:9140   */\n    tag_123:\n        /* \"#utility.yul\":9081:9088   */\n      0x00\n        /* \"#utility.yul\":9110:9134   */\n      tag_228\n        /* \"#utility.yul\":9128:9133   */\n      dup3\n        /* \"#utility.yul\":9110:9134   */\n      tag_122\n      jump\t// in\n    tag_228:\n        /* \"#utility.yul\":9099:9134   */\n      swap1\n      pop\n        /* \"#utility.yul\":9044:9140   */\n      swap2\n      swap1\n      pop\n      jump\t// out\n        /* \"#utility.yul\":9146:9264   */\n    tag_124:\n        /* \"#utility.yul\":9233:9257   */\n      tag_230\n        /* \"#utility.yul\":9251:9256   */\n      dup2\n        /* \"#utility.yul\":9233:9257   */\n      tag_123\n      jump\t// in\n    tag_230:\n        /* \"#utility.yul\":9228:9231   */\n      dup3\n        /* \"#utility.yul\":9221:9258   */\n      mstore\n        /* \"#utility.yul\":9146:9264   */\n      pop\n      pop\n      jump\t// out\n        /* \"#utility.yul\":9270:9492   */\n    tag_36:\n        /* \"#utility.yul\":9363:9367   */\n      0x00\n        /* \"#utility.yul\":9401:9403   */\n      0x20\n        /* \"#utility.yul\":9390:9399   */\n      dup3\n        /* \"#utility.yul\":9386:9404   */\n      add\n        /* \"#utility.yul\":9378:9404   */\n      swap1\n      pop\n        /* \"#utility.yul\":9414:9485   */\n      tag_232\n        /* \"#utility.yul\":9482:9483   */\n      0x00\n        /* \"#utility.yul\":9471:9480   */\n      dup4\n        /* \"#utility.yul\":9467:9484   */\n      add\n        /* \"#utility.yul\":9458:9464   */\n      dup5\n        /* \"#utility.yul\":9414:9485   */\n      tag_124\n      jump\t// in\n    tag_232:\n        /* \"#utility.yul\":9270:9492   */\n      swap3\n      swap2\n      pop\n      pop\n      jump\t// out\n        /* \"#utility.yul\":9498:9667   */\n    tag_125:\n        /* \"#utility.yul\":9582:9593   */\n      0x00\n        /* \"#utility.yul\":9616:9622   */\n      dup3\n        /* \"#utility.yul\":9611:9614   */\n      dup3\n        /* \"#utility.yul\":9604:9623   */\n      mstore\n        /* \"#utility.yul\":9656:9660   */\n      0x20\n        /* \"#utility.yul\":9651:9654   */\n      dup3\n        /* \"#utility.yul\":9647:9661   */\n      add\n        /* \"#utility.yul\":9632:9661   */\n      swap1\n      pop\n        /* \"#utility.yul\":9498:9667   */\n      swap3\n      swap2\n      pop\n      pop\n      jump\t// out\n        /* \"#utility.yul\":9673:10050   */\n    tag_126:\n        /* \"#utility.yul\":9761:9764   */\n      0x00\n        /* \"#utility.yul\":9789:9828   */\n      tag_235\n        /* \"#utility.yul\":9822:9827   */\n      dup3\n        /* \"#utility.yul\":9789:9828   */\n      tag_114\n      jump\t// in\n    tag_235:\n        /* \"#utility.yul\":9844:9915   */\n      tag_236\n        /* \"#utility.yul\":9908:9914   */\n      dup2\n        /* \"#utility.yul\":9903:9906   */\n      dup6\n        /* \"#utility.yul\":9844:9915   */\n      tag_125\n      jump\t// in\n    tag_236:\n        /* \"#utility.yul\":9837:9915   */\n      swap4\n      pop\n        /* \"#utility.yul\":9924:9989   */\n      tag_237\n        /* \"#utility.yul\":9982:9988   */\n      dup2\n        /* \"#utility.yul\":9977:9980   */\n      dup6\n        /* \"#utility.yul\":9970:9974   */\n      0x20\n        /* \"#utility.yul\":9963:9968   */\n      dup7\n        /* \"#utility.yul\":9959:9975   */\n      add\n        /* \"#utility.yul\":9924:9989   */\n      tag_116\n      jump\t// in\n    tag_237:\n        /* \"#utility.yul\":10014:10043   */\n      tag_238\n        /* \"#utility.yul\":10036:10042   */\n      dup2\n        /* \"#utility.yul\":10014:10043   */\n      tag_103\n      jump\t// in\n    tag_238:\n        /* \"#utility.yul\":10009:10012   */\n      dup5\n        /* \"#utility.yul\":10005:10044   */\n      add\n        /* \"#utility.yul\":9998:10044   */\n      swap2\n      pop\n        /* \"#utility.yul\":9765:10050   */\n      pop\n        /* \"#utility.yul\":9673:10050   */\n      swap3\n      swap2\n      pop\n      pop\n      jump\t// out\n        /* \"#utility.yul\":10056:10369   */\n    tag_47:\n        /* \"#utility.yul\":10169:10173   */\n      0x00\n        /* \"#utility.yul\":10207:10209   */\n      0x20\n        /* \"#utility.yul\":10196:10205   */\n      dup3\n        /* \"#utility.yul\":10192:10210   */\n      add\n        /* \"#utility.yul\":10184:10210   */\n      swap1\n      pop\n        /* \"#utility.yul\":10256:10265   */\n      dup2\n        /* \"#utility.yul\":10250:10254   */\n      dup2\n        /* \"#utility.yul\":10246:10266   */\n      sub\n        /* \"#utility.yul\":10242:10243   */\n      0x00\n        /* \"#utility.yul\":10231:10240   */\n      dup4\n        /* \"#utility.yul\":10227:10244   */\n      add\n        /* \"#utility.yul\":10220:10267   */\n      mstore\n        /* \"#utility.yul\":10284:10362   */\n      tag_240\n        /* \"#utility.yul\":10357:10361   */\n      dup2\n        /* \"#utility.yul\":10348:10354   */\n      dup5\n        /* \"#utility.yul\":10284:10362   */\n      tag_126\n      jump\t// in\n    tag_240:\n        /* \"#utility.yul\":10276:10362   */\n      swap1\n      pop\n        /* \"#utility.yul\":10056:10369   */\n      swap3\n      swap2\n      pop\n      pop\n      jump\t// out\n        /* \"#utility.yul\":10375:10539   */\n    tag_127:\n        /* \"#utility.yul\":10515:10531   */\n      0x4e6f7420417574686f72697a6564000000000000000000000000000000000000\n        /* \"#utility.yul\":10511:10512   */\n      0x00\n        /* \"#utility.yul\":10503:10509   */\n      dup3\n        /* \"#utility.yul\":10499:10513   */\n      add\n        /* \"#utility.yul\":10492:10532   */\n      mstore\n        /* \"#utility.yul\":10375:10539   */\n      pop\n      jump\t// out\n        /* \"#utility.yul\":10545:10911   */\n    tag_128:\n        /* \"#utility.yul\":10687:10690   */\n      0x00\n        /* \"#utility.yul\":10708:10775   */\n      tag_243\n        /* \"#utility.yul\":10772:10774   */\n      0x0e\n        /* \"#utility.yul\":10767:10770   */\n      dup4\n        /* \"#utility.yul\":10708:10775   */\n      tag_125\n      jump\t// in\n    tag_243:\n        /* \"#utility.yul\":10701:10775   */\n      swap2\n      pop\n        /* \"#utility.yul\":10784:10877   */\n      tag_244\n        /* \"#utility.yul\":10873:10876   */\n      dup3\n        /* \"#utility.yul\":10784:10877   */\n      tag_127\n      jump\t// in\n    tag_244:\n        /* \"#utility.yul\":10902:10904   */\n      0x20\n        /* \"#utility.yul\":10897:10900   */\n      dup3\n        /* \"#utility.yul\":10893:10905   */\n      add\n        /* \"#utility.yul\":10886:10905   */\n      swap1\n      pop\n        /* \"#utility.yul\":10545:10911   */\n      swap2\n      swap1\n      pop\n      jump\t// out\n        /* \"#utility.yul\":10917:11336   */\n    tag_54:\n        /* \"#utility.yul\":11083:11087   */\n      0x00\n        /* \"#utility.yul\":11121:11123   */\n      0x20\n        /* \"#utility.yul\":11110:11119   */\n      dup3\n        /* \"#utility.yul\":11106:11124   */\n      add\n        /* \"#utility.yul\":11098:11124   */\n      swap1\n      pop\n        /* \"#utility.yul\":11170:11179   */\n      dup2\n        /* \"#utility.yul\":11164:11168   */\n      dup2\n        /* \"#utility.yul\":11160:11180   */\n      sub\n        /* \"#utility.yul\":11156:11157   */\n      0x00\n        /* \"#utility.yul\":11145:11154   */\n      dup4\n        /* \"#utility.yul\":11141:11158   */\n      add\n        /* \"#utility.yul\":11134:11181   */\n      mstore\n        /* \"#utility.yul\":11198:11329   */\n      tag_246\n        /* \"#utility.yul\":11324:11328   */\n      dup2\n        /* \"#utility.yul\":11198:11329   */\n      tag_128\n      jump\t// in\n    tag_246:\n        /* \"#utility.yul\":11190:11329   */\n      swap1\n      pop\n        /* \"#utility.yul\":10917:11336   */\n      swap2\n      swap1\n      pop\n      jump\t// out\n        /* \"#utility.yul\":11342:11522   */\n    tag_129:\n        /* \"#utility.yul\":11390:11467   */\n      0x4e487b7100000000000000000000000000000000000000000000000000000000\n        /* \"#utility.yul\":11387:11388   */\n      0x00\n        /* \"#utility.yul\":11380:11468   */\n      mstore\n        /* \"#utility.yul\":11487:11491   */\n      0x22\n        /* \"#utility.yul\":11484:11485   */\n      0x04\n        /* \"#utility.yul\":11477:11492   */\n      mstore\n        /* \"#utility.yul\":11511:11515   */\n      0x24\n        /* \"#utility.yul\":11508:11509   */\n      0x00\n        /* \"#utility.yul\":11501:11516   */\n      revert\n        /* \"#utility.yul\":11528:11848   */\n    tag_63:\n        /* \"#utility.yul\":11572:11578   */\n      0x00\n        /* \"#utility.yul\":11609:11610   */\n      0x02\n        /* \"#utility.yul\":11603:11607   */\n      dup3\n        /* \"#utility.yul\":11599:11611   */\n      div\n        /* \"#utility.yul\":11589:11611   */\n      swap1\n      pop\n        /* \"#utility.yul\":11656:11657   */\n      0x01\n        /* \"#utility.yul\":11650:11654   */\n      dup3\n        /* \"#utility.yul\":11646:11658   */\n      and\n        /* \"#utility.yul\":11677:11695   */\n      dup1\n        /* \"#utility.yul\":11667:11748   */\n      tag_249\n      jumpi\n        /* \"#utility.yul\":11733:11737   */\n      0x7f\n        /* \"#utility.yul\":11725:11731   */\n      dup3\n        /* \"#utility.yul\":11721:11738   */\n      and\n        /* \"#utility.yul\":11711:11738   */\n      swap2\n      pop\n        /* \"#utility.yul\":11667:11748   */\n    tag_249:\n        /* \"#utility.yul\":11795:11797   */\n      0x20\n        /* \"#utility.yul\":11787:11793   */\n      dup3\n        /* \"#utility.yul\":11784:11798   */\n      lt\n        /* \"#utility.yul\":11764:11782   */\n      dup2\n        /* \"#utility.yul\":11761:11799   */\n      sub\n        /* \"#utility.yul\":11758:11842   */\n      tag_250\n      jumpi\n        /* \"#utility.yul\":11814:11832   */\n      tag_251\n      tag_129\n      jump\t// in\n    tag_251:\n        /* \"#utility.yul\":11758:11842   */\n    tag_250:\n        /* \"#utility.yul\":11579:11848   */\n      pop\n        /* \"#utility.yul\":11528:11848   */\n      swap2\n      swap1\n      pop\n      jump\t// out\n        /* \"#utility.yul\":11854:11995   */\n    tag_130:\n        /* \"#utility.yul\":11903:11907   */\n      0x00\n        /* \"#utility.yul\":11926:11929   */\n      dup2\n        /* \"#utility.yul\":11918:11929   */\n      swap1\n      pop\n        /* \"#utility.yul\":11949:11952   */\n      dup2\n        /* \"#utility.yul\":11946:11947   */\n      0x00\n        /* \"#utility.yul\":11939:11953   */\n      mstore\n        /* \"#utility.yul\":11983:11987   */\n      0x20\n        /* \"#utility.yul\":11980:11981   */\n      0x00\n        /* \"#utility.yul\":11970:11988   */\n      keccak256\n        /* \"#utility.yul\":11962:11988   */\n      swap1\n      pop\n        /* \"#utility.yul\":11854:11995   */\n      swap2\n      swap1\n      pop\n      jump\t// out\n        /* \"#utility.yul\":12001:12094   */\n    tag_131:\n        /* \"#utility.yul\":12038:12044   */\n      0x00\n        /* \"#utility.yul\":12085:12087   */\n      0x20\n        /* \"#utility.yul\":12080:12082   */\n      0x1f\n        /* \"#utility.yul\":12073:12078   */\n      dup4\n        /* \"#utility.yul\":12069:12083   */\n      add\n        /* \"#utility.yul\":12065:12088   */\n      div\n        /* \"#utility.yul\":12055:12088   */\n      swap1\n      pop\n        /* \"#utility.yul\":12001:12094   */\n      swap2\n      swap1\n      pop\n      jump\t// out\n        /* \"#utility.yul\":12100:12207   */\n    tag_132:\n        /* \"#utility.yul\":12144:12152   */\n      0x00\n        /* \"#utility.yul\":12194:12199   */\n      dup3\n        /* \"#utility.yul\":12188:12192   */\n      dup3\n        /* \"#utility.yul\":12184:12200   */\n      shl\n        /* \"#utility.yul\":12163:12200   */\n      swap1\n      pop\n        /* \"#utility.yul\":12100:12207   */\n      swap3\n      swap2\n      pop\n      pop\n      jump\t// out\n        /* \"#utility.yul\":12213:12606   */\n    tag_133:\n        /* \"#utility.yul\":12282:12288   */\n      0x00\n        /* \"#utility.yul\":12332:12333   */\n      0x08\n        /* \"#utility.yul\":12320:12330   */\n      dup4\n        /* \"#utility.yul\":12316:12334   */\n      mul\n        /* \"#utility.yul\":12355:12452   */\n      tag_256\n        /* \"#utility.yul\":12385:12451   */\n      0xffffffffffffffffffffffffffffffffffffffffffffffffffffffffffffffff\n        /* \"#utility.yul\":12374:12383   */\n      dup3\n        /* \"#utility.yul\":12355:12452   */\n      tag_132\n      jump\t// in\n    tag_256:\n        /* \"#utility.yul\":12473:12512   */\n      tag_257\n        /* \"#utility.yul\":12503:12511   */\n      dup7\n        /* \"#utility.yul\":12492:12501   */\n      dup4\n        /* \"#utility.yul\":12473:12512   */\n      tag_132\n      jump\t// in\n    tag_257:\n        /* \"#utility.yul\":12461:12512   */\n      swap6\n      pop\n        /* \"#utility.yul\":12545:12549   */\n      dup1\n        /* \"#utility.yul\":12541:12550   */\n      not\n        /* \"#utility.yul\":12534:12539   */\n      dup5\n        /* \"#utility.yul\":12530:12551   */\n      and\n        /* \"#utility.yul\":12521:12551   */\n      swap4\n      pop\n        /* \"#utility.yul\":12594:12598   */\n      dup1\n        /* \"#utility.yul\":12584:12592   */\n      dup7\n        /* \"#utility.yul\":12580:12599   */\n      and\n        /* \"#utility.yul\":12573:12578   */\n      dup5\n        /* \"#utility.yul\":12570:12600   */\n      or\n        /* \"#utility.yul\":12560:12600   */\n      swap3\n      pop\n        /* \"#utility.yul\":12289:12606   */\n      pop\n      pop\n        /* \"#utility.yul\":12213:12606   */\n      swap4\n      swap3\n      pop\n      pop\n      pop\n      jump\t// out\n        /* \"#utility.yul\":12612:12689   */\n    tag_134:\n        /* \"#utility.yul\":12649:12656   */\n      0x00\n        /* \"#utility.yul\":12678:12683   */\n      dup2\n        /* \"#utility.yul\":12667:12683   */\n      swap1\n      pop\n        /* \"#utility.yul\":12612:12689   */\n      swap2\n      swap1\n      pop\n      jump\t// out\n        /* \"#utility.yul\":12695:12755   */\n    tag_135:\n        /* \"#utility.yul\":12723:12726   */\n      0x00\n        /* \"#utility.yul\":12744:12749   */\n      dup2\n        /* \"#utility.yul\":12737:12749   */\n      swap1\n      pop\n        /* \"#utility.yul\":12695:12755   */\n      swap2\n      swap1\n      pop\n      jump\t// out\n        /* \"#utility.yul\":12761:12903   */\n    tag_136:\n        /* \"#utility.yul\":12811:12820   */\n      0x00\n        /* \"#utility.yul\":12844:12897   */\n      tag_261\n        /* \"#utility.yul\":12862:12896   */\n      tag_262\n        /* \"#utility.yul\":12871:12895   */\n      tag_263\n        /* \"#utility.yul\":12889:12894   */\n      dup5\n        /* \"#utility.yul\":12871:12895   */\n      tag_134\n      jump\t// in\n    tag_263:\n        /* \"#utility.yul\":12862:12896   */\n      tag_135\n      jump\t// in\n    tag_262:\n        /* \"#utility.yul\":12844:12897   */\n      tag_134\n      jump\t// in\n    tag_261:\n        /* \"#utility.yul\":12831:12897   */\n      swap1\n      pop\n        /* \"#utility.yul\":12761:12903   */\n      swap2\n      swap1\n      pop\n      jump\t// out\n        /* \"#utility.yul\":12909:12984   */\n    tag_137:\n        /* \"#utility.yul\":12952:12955   */\n      0x00\n        /* \"#utility.yul\":12973:12978   */\n      dup2\n        /* \"#utility.yul\":12966:12978   */\n      swap1\n      pop\n        /* \"#utility.yul\":12909:12984   */\n      swap2\n      swap1\n      pop\n      jump\t// out\n        /* \"#utility.yul\":12990:13259   */\n    tag_138:\n        /* \"#utility.yul\":13100:13139   */\n      tag_266\n        /* \"#utility.yul\":13131:13138   */\n      dup4\n        /* \"#utility.yul\":13100:13139   */\n      tag_136\n      jump\t// in\n    tag_266:\n        /* \"#utility.yul\":13161:13252   */\n      tag_267\n        /* \"#utility.yul\":13210:13251   */\n      tag_268\n        /* \"#utility.yul\":13234:13250   */\n      dup3\n        /* \"#utility.yul\":13210:13251   */\n      tag_137\n      jump\t// in\n    tag_268:\n        /* \"#utility.yul\":13202:13208   */\n      dup5\n        /* \"#utility.yul\":13195:13199   */\n      dup5\n        /* \"#utility.yul\":13189:13200   */\n      sload\n        /* \"#utility.yul\":13161:13252   */\n      tag_133\n      jump\t// in\n    tag_267:\n        /* \"#utility.yul\":13155:13159   */\n      dup3\n        /* \"#utility.yul\":13148:13253   */\n      sstore\n        /* \"#utility.yul\":13066:13259   */\n      pop\n        /* \"#utility.yul\":12990:13259   */\n      pop\n      pop\n      pop\n      jump\t// out\n        /* \"#utility.yul\":13265:13338   */\n    tag_139:\n        /* \"#utility.yul\":13310:13313   */\n      0x00\n        /* \"#utility.yul\":13265:13338   */\n      swap1\n      jump\t// out\n        /* \"#utility.yul\":13344:13533   */\n    tag_140:\n        /* \"#utility.yul\":13421:13453   */\n      tag_271\n      tag_139\n      jump\t// in\n    tag_271:\n        /* \"#utility.yul\":13462:13527   */\n      tag_272\n        /* \"#utility.yul\":13520:13526   */\n      dup2\n        /* \"#utility.yul\":13512:13518   */\n      dup5\n        /* \"#utility.yul\":13506:13510   */\n      dup5\n        /* \"#utility.yul\":13462:13527   */\n      tag_138\n      jump\t// in\n    tag_272:\n        /* \"#utility.yul\":13397:13533   */\n      pop\n        /* \"#utility.yul\":13344:13533   */\n      pop\n      pop\n      jump\t// out\n        /* \"#utility.yul\":13539:13725   */\n    tag_141:\n        /* \"#utility.yul\":13599:13719   */\n    tag_274:\n        /* \"#utility.yul\":13616:13619   */\n      dup2\n        /* \"#utility.yul\":13609:13614   */\n      dup2\n        /* \"#utility.yul\":13606:13620   */\n      lt\n        /* \"#utility.yul\":13599:13719   */\n      iszero\n      tag_276\n      jumpi\n        /* \"#utility.yul\":13670:13709   */\n      tag_277\n        /* \"#utility.yul\":13707:13708   */\n      0x00\n        /* \"#utility.yul\":13700:13705   */\n      dup3\n        /* \"#utility.yul\":13670:13709   */\n      tag_140\n      jump\t// in\n    tag_277:\n        /* \"#utility.yul\":13643:13644   */\n      0x01\n        /* \"#utility.yul\":13636:13641   */\n      dup2\n        /* \"#utility.yul\":13632:13645   */\n      add\n        /* \"#utility.yul\":13623:13645   */\n      swap1\n      pop\n        /* \"#utility.yul\":13599:13719   */\n      jump(tag_274)\n    tag_276:\n        /* \"#utility.yul\":13539:13725   */\n      pop\n      pop\n      jump\t// out\n        /* \"#utility.yul\":13731:14274   */\n    tag_142:\n        /* \"#utility.yul\":13832:13834   */\n      0x1f\n        /* \"#utility.yul\":13827:13830   */\n      dup3\n        /* \"#utility.yul\":13824:13835   */\n      gt\n        /* \"#utility.yul\":13821:14267   */\n      iszero\n      tag_279\n      jumpi\n        /* \"#utility.yul\":13866:13904   */\n      tag_280\n        /* \"#utility.yul\":13898:13903   */\n      dup2\n        /* \"#utility.yul\":13866:13904   */\n      tag_130\n      jump\t// in\n    tag_280:\n        /* \"#utility.yul\":13950:13979   */\n      tag_281\n        /* \"#utility.yul\":13968:13978   */\n      dup5\n        /* \"#utility.yul\":13950:13979   */\n      tag_131\n      jump\t// in\n    tag_281:\n        /* \"#utility.yul\":13940:13948   */\n      dup2\n        /* \"#utility.yul\":13936:13980   */\n      add\n        /* \"#utility.yul\":14133:14135   */\n      0x20\n        /* \"#utility.yul\":14121:14131   */\n      dup6\n        /* \"#utility.yul\":14118:14136   */\n      lt\n        /* \"#utility.yul\":14115:14164   */\n      iszero\n      tag_282\n      jumpi\n        /* \"#utility.yul\":14154:14162   */\n      dup2\n        /* \"#utility.yul\":14139:14162   */\n      swap1\n      pop\n        /* \"#utility.yul\":14115:14164   */\n    tag_282:\n        /* \"#utility.yul\":14177:14257   */\n      tag_283\n        /* \"#utility.yul\":14233:14255   */\n      tag_284\n        /* \"#utility.yul\":14251:14254   */\n      dup6\n        /* \"#utility.yul\":14233:14255   */\n      tag_131\n      jump\t// in\n    tag_284:\n        /* \"#utility.yul\":14223:14231   */\n      dup4\n        /* \"#utility.yul\":14219:14256   */\n      add\n        /* \"#utility.yul\":14206:14217   */\n      dup3\n        /* \"#utility.yul\":14177:14257   */\n      tag_141\n      jump\t// in\n    tag_283:\n        /* \"#utility.yul\":13836:14267   */\n      pop\n      pop\n        /* \"#utility.yul\":13821:14267   */\n    tag_279:\n        /* \"#utility.yul\":13731:14274   */\n      pop\n      pop\n      pop\n      jump\t// out\n        /* \"#utility.yul\":14280:14397   */\n    tag_143:\n        /* \"#utility.yul\":14334:14342   */\n      0x00\n        /* \"#utility.yul\":14384:14389   */\n      dup3\n        /* \"#utility.yul\":14378:14382   */\n      dup3\n        /* \"#utility.yul\":14374:14390   */\n      shr\n        /* \"#utility.yul\":14353:14390   */\n      swap1\n      pop\n        /* \"#utility.yul\":14280:14397   */\n      swap3\n      swap2\n      pop\n      pop\n      jump\t// out\n        /* \"#utility.yul\":14403:14572   */\n    tag_144:\n        /* \"#utility.yul\":14447:14453   */\n      0x00\n        /* \"#utility.yul\":14480:14531   */\n      tag_287\n        /* \"#utility.yul\":14528:14529   */\n      0x00\n        /* \"#utility.yul\":14524:14530   */\n      not\n        /* \"#utility.yul\":14516:14521   */\n      dup5\n        /* \"#utility.yul\":14513:14514   */\n      0x08\n        /* \"#utility.yul\":14509:14522   */\n      mul\n        /* \"#utility.yul\":14480:14531   */\n      tag_143\n      jump\t// in\n    tag_287:\n        /* \"#utility.yul\":14476:14532   */\n      not\n        /* \"#utility.yul\":14561:14565   */\n      dup1\n        /* \"#utility.yul\":14555:14559   */\n      dup4\n        /* \"#utility.yul\":14551:14566   */\n      and\n        /* \"#utility.yul\":14541:14566   */\n      swap2\n      pop\n        /* \"#utility.yul\":14454:14572   */\n      pop\n        /* \"#utility.yul\":14403:14572   */\n      swap3\n      swap2\n      pop\n      pop\n      jump\t// out\n        /* \"#utility.yul\":14577:14872   */\n    tag_145:\n        /* \"#utility.yul\":14653:14657   */\n      0x00\n        /* \"#utility.yul\":14799:14828   */\n      tag_289\n        /* \"#utility.yul\":14824:14827   */\n      dup4\n        /* \"#utility.yul\":14818:14822   */\n      dup4\n        /* \"#utility.yul\":14799:14828   */\n      tag_144\n      jump\t// in\n    tag_289:\n        /* \"#utility.yul\":14791:14828   */\n      swap2\n      pop\n        /* \"#utility.yul\":14861:14864   */\n      dup3\n        /* \"#utility.yul\":14858:14859   */\n      0x02\n        /* \"#utility.yul\":14854:14865   */\n      mul\n        /* \"#utility.yul\":14848:14852   */\n      dup3\n        /* \"#utility.yul\":14845:14866   */\n      or\n        /* \"#utility.yul\":14837:14866   */\n      swap1\n      pop\n        /* \"#utility.yul\":14577:14872   */\n      swap3\n      swap2\n      pop\n      pop\n      jump\t// out\n        /* \"#utility.yul\":14877:16272   */\n    tag_57:\n        /* \"#utility.yul\":14994:15031   */\n      tag_291\n        /* \"#utility.yul\":15027:15030   */\n      dup3\n        /* \"#utility.yul\":14994:15031   */\n      tag_114\n      jump\t// in\n    tag_291:\n        /* \"#utility.yul\":15096:15114   */\n      0xffffffffffffffff\n        /* \"#utility.yul\":15088:15094   */\n      dup2\n        /* \"#utility.yul\":15085:15115   */\n      gt\n        /* \"#utility.yul\":15082:15138   */\n      iszero\n      tag_292\n      jumpi\n        /* \"#utility.yul\":15118:15136   */\n      tag_293\n      tag_104\n      jump\t// in\n    tag_293:\n        /* \"#utility.yul\":15082:15138   */\n    tag_292:\n        /* \"#utility.yul\":15162:15200   */\n      tag_294\n        /* \"#utility.yul\":15194:15198   */\n      dup3\n        /* \"#utility.yul\":15188:15199   */\n      sload\n        /* \"#utility.yul\":15162:15200   */\n      tag_63\n      jump\t// in\n    tag_294:\n        /* \"#utility.yul\":15247:15314   */\n      tag_295\n        /* \"#utility.yul\":15307:15313   */\n      dup3\n        /* \"#utility.yul\":15299:15305   */\n      dup3\n        /* \"#utility.yul\":15293:15297   */\n      dup6\n        /* \"#utility.yul\":15247:15314   */\n      tag_142\n      jump\t// in\n    tag_295:\n        /* \"#utility.yul\":15341:15342   */\n      0x00\n        /* \"#utility.yul\":15365:15369   */\n      0x20\n        /* \"#utility.yul\":15352:15369   */\n      swap1\n      pop\n        /* \"#utility.yul\":15397:15399   */\n      0x1f\n        /* \"#utility.yul\":15389:15395   */\n      dup4\n        /* \"#utility.yul\":15386:15400   */\n      gt\n        /* \"#utility.yul\":15414:15415   */\n      0x01\n        /* \"#utility.yul\":15409:16027   */\n      dup2\n      eq\n      tag_297\n      jumpi\n        /* \"#utility.yul\":16071:16072   */\n      0x00\n        /* \"#utility.yul\":16088:16094   */\n      dup5\n        /* \"#utility.yul\":16085:16162   */\n      iszero\n      tag_298\n      jumpi\n        /* \"#utility.yul\":16137:16146   */\n      dup3\n        /* \"#utility.yul\":16132:16135   */\n      dup8\n        /* \"#utility.yul\":16128:16147   */\n      add\n        /* \"#utility.yul\":16122:16148   */\n      mload\n        /* \"#utility.yul\":16113:16148   */\n      swap1\n      pop\n        /* \"#utility.yul\":16085:16162   */\n    tag_298:\n        /* \"#utility.yul\":16188:16255   */\n      tag_299\n        /* \"#utility.yul\":16248:16254   */\n      dup6\n        /* \"#utility.yul\":16241:16246   */\n      dup3\n        /* \"#utility.yul\":16188:16255   */\n      tag_145\n      jump\t// in\n    tag_299:\n        /* \"#utility.yul\":16182:16186   */\n      dup7\n        /* \"#utility.yul\":16175:16256   */\n      sstore\n        /* \"#utility.yul\":16044:16266   */\n      pop\n        /* \"#utility.yul\":15379:16266   */\n      jump(tag_296)\n        /* \"#utility.yul\":15409:16027   */\n    tag_297:\n        /* \"#utility.yul\":15461:15465   */\n      0x1f\n        /* \"#utility.yul\":15457:15466   */\n      not\n        /* \"#utility.yul\":15449:15455   */\n      dup5\n        /* \"#utility.yul\":15445:15467   */\n      and\n        /* \"#utility.yul\":15495:15532   */\n      tag_300\n        /* \"#utility.yul\":15527:15531   */\n      dup7\n        /* \"#utility.yul\":15495:15532   */\n      tag_130\n      jump\t// in\n    tag_300:\n        /* \"#utility.yul\":15554:15555   */\n      0x00\n        /* \"#utility.yul\":15568:15776   */\n    tag_301:\n        /* \"#utility.yul\":15582:15589   */\n      dup3\n        /* \"#utility.yul\":15579:15580   */\n      dup2\n        /* \"#utility.yul\":15576:15590   */\n      lt\n        /* \"#utility.yul\":15568:15776   */\n      iszero\n      tag_303\n      jumpi\n        /* \"#utility.yul\":15661:15670   */\n      dup5\n        /* \"#utility.yul\":15656:15659   */\n      dup10\n        /* \"#utility.yul\":15652:15671   */\n      add\n        /* \"#utility.yul\":15646:15672   */\n      mload\n        /* \"#utility.yul\":15638:15644   */\n      dup3\n        /* \"#utility.yul\":15631:15673   */\n      sstore\n        /* \"#utility.yul\":15712:15713   */\n      0x01\n        /* \"#utility.yul\":15704:15710   */\n      dup3\n        /* \"#utility.yul\":15700:15714   */\n      add\n        /* \"#utility.yul\":15690:15714   */\n      swap2\n      pop\n        /* \"#utility.yul\":15759:15761   */\n      0x20\n        /* \"#utility.yul\":15748:15757   */\n      dup6\n        /* \"#utility.yul\":15744:15762   */\n      add\n        /* \"#utility.yul\":15731:15762   */\n      swap5\n      pop\n        /* \"#utility.yul\":15605:15609   */\n      0x20\n        /* \"#utility.yul\":15602:15603   */\n      dup2\n        /* \"#utility.yul\":15598:15610   */\n      add\n        /* \"#utility.yul\":15593:15610   */\n      swap1\n      pop\n        /* \"#utility.yul\":15568:15776   */\n      jump(tag_301)\n    tag_303:\n        /* \"#utility.yul\":15804:15810   */\n      dup7\n        /* \"#utility.yul\":15795:15802   */\n      dup4\n        /* \"#utility.yul\":15792:15811   */\n      lt\n        /* \"#utility.yul\":15789:15968   */\n      iszero\n      tag_304\n      jumpi\n        /* \"#utility.yul\":15862:15871   */\n      dup5\n        /* \"#utility.yul\":15857:15860   */\n      dup10\n        /* \"#utility.yul\":15853:15872   */\n      add\n        /* \"#utility.yul\":15847:15873   */\n      mload\n        /* \"#utility.yul\":15905:15953   */\n      tag_305\n        /* \"#utility.yul\":15947:15951   */\n      0x1f\n        /* \"#utility.yul\":15939:15945   */\n      dup10\n        /* \"#utility.yul\":15935:15952   */\n      and\n        /* \"#utility.yul\":15924:15933   */\n      dup3\n        /* \"#utility.yul\":15905:15953   */\n      tag_144\n      jump\t// in\n    tag_305:\n        /* \"#utility.yul\":15897:15903   */\n      dup4\n        /* \"#utility.yul\":15890:15954   */\n      sstore\n        /* \"#utility.yul\":15812:15968   */\n      pop\n        /* \"#utility.yul\":15789:15968   */\n    tag_304:\n        /* \"#utility.yul\":16014:16015   */\n      0x01\n        /* \"#utility.yul\":16010:16011   */\n      0x02\n        /* \"#utility.yul\":16002:16008   */\n      dup9\n        /* \"#utility.yul\":15998:16012   */\n      mul\n        /* \"#utility.yul\":15994:16016   */\n      add\n        /* \"#utility.yul\":15988:15992   */\n      dup9\n        /* \"#utility.yul\":15981:16017   */\n      sstore\n        /* \"#utility.yul\":15416:16027   */\n      pop\n      pop\n      pop\n        /* \"#utility.yul\":15379:16266   */\n    tag_296:\n      pop\n        /* \"#utility.yul\":14969:16272   */\n      pop\n      pop\n      pop\n        /* \"#utility.yul\":14877:16272   */\n      pop\n      pop\n      jump\t// out\n\n    auxdata: 0xa26469706673582212203704c4fd024ed6185cc405d19a6df91cdab98610149f4932d78a59351fb18aa764736f6c63430008120033\n}\n",
				"bytecode": {
					"linkReferences": {},
					"object": "608060405234801561001057600080fd5b5033600160006101000a81548173ffffffffffffffffffffffffffffffffffffffff021916908373ffffffffffffffffffffffffffffffffffffffff160217905550610f31806100616000396000f3fe608060405234801561001057600080fd5b506004361061009e5760003560e01c80638da5cb5b116100665780638da5cb5b14610147578063afbd019714610165578063c10eeaec14610183578063e07f4444146101b3578063e378bd77146101d15761009e565b8063205b97cb146100a35780632b022ba0146100bf578063364344e1146100dd57806348cbf1d1146100f95780636fcb76a414610129575b600080fd5b6100bd60048036038101906100b8919061082e565b6101ef565b005b6100c7610292565b6040516100d49190610a16565b60405180910390f35b6100f760048036038101906100f29190610a38565b6104a7565b005b610113600480360381019061010e919061082e565b61053c565b6040516101209190610a16565b60405180910390f35b610131610543565b60405161013e9190610a16565b60405180910390f35b61014f610588565b60405161015c9190610b20565b60405180910390f35b61016d6105ae565b60405161017a9190610a16565b60405180910390f35b61019d6004803603810190610198919061082e565b6105f3565b6040516101aa9190610a16565b60405180910390f35b6101bb6105fa565b6040516101c89190610b85565b60405180910390f35b6101d9610688565b6040516101e69190610a16565b60405180910390f35b600160009054906101000a900473ffffffffffffffffffffffffffffffffffffffff1673ffffffffffffffffffffffffffffffffffffffff163373ffffffffffffffffffffffffffffffffffffffff161461027f576040517f08c379a000000000000000000000000000000000000000000000000000000000815260040161027690610bf3565b60405180910390fd5b806000908161028e9190610e29565b5050565b60606002805480602002602001604051908101604052809291908181526020016000905b8282101561049e57838290600052602060002090600302016040518060600160405290816000820180546102e990610c42565b80601f016020809104026020016040519081016040528092919081815260200182805461031590610c42565b80156103625780601f1061033757610100808354040283529160200191610362565b820191906000526020600020905b81548152906001019060200180831161034557829003601f168201915b5050505050815260200160018201805461037b90610c42565b80601f01602080910402602001604051908101604052809291908181526020018280546103a790610c42565b80156103f45780601f106103c9576101008083540402835291602001916103f4565b820191906000526020600020905b8154815290600101906020018083116103d757829003601f168201915b5050505050815260200160028201805461040d90610c42565b80601f016020809104026020016040519081016040528092919081815260200182805461043990610c42565b80156104865780601f1061045b57610100808354040283529160200191610486565b820191906000526020600020905b81548152906001019060200180831161046957829003601f168201915b505050505081525050815260200190600101906102b6565b50505050905090565b60006040518060600160405280858152602001848152602001838152509050600281908060018154018082558091505060019003906000526020600020906003020160009091909190915060008201518160000190816105079190610e29565b50602082015181600101908161051d9190610e29565b5060408201518160020190816105339190610e29565b50505050505050565b6060919050565b60606105836040518060400160405280600681526020017f55706461746500000000000000000000000000000000000000000000000000008152506106cd565b905090565b600160009054906101000a900473ffffffffffffffffffffffffffffffffffffffff1681565b60606105ee6040518060400160405280600481526020017f52656164000000000000000000000000000000000000000000000000000000008152506106cd565b905090565b6060919050565b6000805461060790610c42565b80601f016020809104026020016040519081016040528092919081815260200182805461063390610c42565b80156106805780601f1061065557610100808354040283529160200191610680565b820191906000526020600020905b81548152906001019060200180831161066357829003601f168201915b505050505081565b60606106c86040518060400160405280600581526020017f57726974650000000000000000000000000000000000000000000000000000008152506106cd565b905090565b6060919050565b6000604051905090565b600080fd5b600080fd5b600080fd5b600080fd5b6000601f19601f8301169050919050565b7f4e487b7100000000000000000000000000000000000000000000000000000000600052604160045260246000fd5b61073b826106f2565b810181811067ffffffffffffffff8211171561075a57610759610703565b5b80604052505050565b600061076d6106d4565b90506107798282610732565b919050565b600067ffffffffffffffff82111561079957610798610703565b5b6107a2826106f2565b9050602081019050919050565b82818337600083830152505050565b60006107d16107cc8461077e565b610763565b9050828152602081018484840111156107ed576107ec6106ed565b5b6107f88482856107af565b509392505050565b600082601f830112610815576108146106e8565b5b81356108258482602086016107be565b91505092915050565b600060208284031215610844576108436106de565b5b600082013567ffffffffffffffff811115610862576108616106e3565b5b61086e84828501610800565b91505092915050565b600081519050919050565b600082825260208201905092915050565b6000819050602082019050919050565b600081519050919050565b600082825260208201905092915050565b60005b838110156108dd5780820151818401526020810190506108c2565b60008484015250505050565b60006108f4826108a3565b6108fe81856108ae565b935061090e8185602086016108bf565b610917816106f2565b840191505092915050565b6000606083016000830151848203600086015261093f82826108e9565b9150506020830151848203602086015261095982826108e9565b9150506040830151848203604086015261097382826108e9565b9150508091505092915050565b600061098c8383610922565b905092915050565b6000602082019050919050565b60006109ac82610877565b6109b68185610882565b9350836020820285016109c885610893565b8060005b85811015610a0457848403895281516109e58582610980565b94506109f083610994565b925060208a019950506001810190506109cc565b50829750879550505050505092915050565b60006020820190508181036000830152610a3081846109a1565b905092915050565b600080600060608486031215610a5157610a506106de565b5b600084013567ffffffffffffffff811115610a6f57610a6e6106e3565b5b610a7b86828701610800565b935050602084013567ffffffffffffffff811115610a9c57610a9b6106e3565b5b610aa886828701610800565b925050604084013567ffffffffffffffff811115610ac957610ac86106e3565b5b610ad586828701610800565b9150509250925092565b600073ffffffffffffffffffffffffffffffffffffffff82169050919050565b6000610b0a82610adf565b9050919050565b610b1a81610aff565b82525050565b6000602082019050610b356000830184610b11565b92915050565b600082825260208201905092915050565b6000610b57826108a3565b610b618185610b3b565b9350610b718185602086016108bf565b610b7a816106f2565b840191505092915050565b60006020820190508181036000830152610b9f8184610b4c565b905092915050565b7f4e6f7420417574686f72697a6564000000000000000000000000000000000000600082015250565b6000610bdd600e83610b3b565b9150610be882610ba7565b602082019050919050565b60006020820190508181036000830152610c0c81610bd0565b9050919050565b7f4e487b7100000000000000000000000000000000000000000000000000000000600052602260045260246000fd5b60006002820490506001821680610c5a57607f821691505b602082108103610c6d57610c6c610c13565b5b50919050565b60008190508160005260206000209050919050565b60006020601f8301049050919050565b600082821b905092915050565b600060088302610cd57fffffffffffffffffffffffffffffffffffffffffffffffffffffffffffffffff82610c98565b610cdf8683610c98565b95508019841693508086168417925050509392505050565b6000819050919050565b6000819050919050565b6000610d26610d21610d1c84610cf7565b610d01565b610cf7565b9050919050565b6000819050919050565b610d4083610d0b565b610d54610d4c82610d2d565b848454610ca5565b825550505050565b600090565b610d69610d5c565b610d74818484610d37565b505050565b5b81811015610d9857610d8d600082610d61565b600181019050610d7a565b5050565b601f821115610ddd57610dae81610c73565b610db784610c88565b81016020851015610dc6578190505b610dda610dd285610c88565b830182610d79565b50505b505050565b600082821c905092915050565b6000610e0060001984600802610de2565b1980831691505092915050565b6000610e198383610def565b9150826002028217905092915050565b610e32826108a3565b67ffffffffffffffff811115610e4b57610e4a610703565b5b610e558254610c42565b610e60828285610d9c565b600060209050601f831160018114610e935760008415610e81578287015190505b610e8b8582610e0d565b865550610ef3565b601f198416610ea186610c73565b60005b82811015610ec957848901518255600182019150602085019450602081019050610ea4565b86831015610ee65784890151610ee2601f891682610def565b8355505b6001600288020188555050505b50505050505056fea26469706673582212203704c4fd024ed6185cc405d19a6df91cdab98610149f4932d78a59351fb18aa764736f6c63430008120033",
					"opcodes": "PUSH1 0x80 PUSH1 0x40 MSTORE CALLVALUE DUP1 ISZERO PUSH2 0x10 JUMPI PUSH1 0x0 DUP1 REVERT JUMPDEST POP CALLER PUSH1 0x1 PUSH1 0x0 PUSH2 0x100 EXP DUP2 SLOAD DUP2 PUSH20 0xFFFFFFFFFFFFFFFFFFFFFFFFFFFFFFFFFFFFFFFF MUL NOT AND SWAP1 DUP4 PUSH20 0xFFFFFFFFFFFFFFFFFFFFFFFFFFFFFFFFFFFFFFFF AND MUL OR SWAP1 SSTORE POP PUSH2 0xF31 DUP1 PUSH2 0x61 PUSH1 0x0 CODECOPY PUSH1 0x0 RETURN INVALID PUSH1 0x80 PUSH1 0x40 MSTORE CALLVALUE DUP1 ISZERO PUSH2 0x10 JUMPI PUSH1 0x0 DUP1 REVERT JUMPDEST POP PUSH1 0x4 CALLDATASIZE LT PUSH2 0x9E JUMPI PUSH1 0x0 CALLDATALOAD PUSH1 0xE0 SHR DUP1 PUSH4 0x8DA5CB5B GT PUSH2 0x66 JUMPI DUP1 PUSH4 0x8DA5CB5B EQ PUSH2 0x147 JUMPI DUP1 PUSH4 0xAFBD0197 EQ PUSH2 0x165 JUMPI DUP1 PUSH4 0xC10EEAEC EQ PUSH2 0x183 JUMPI DUP1 PUSH4 0xE07F4444 EQ PUSH2 0x1B3 JUMPI DUP1 PUSH4 0xE378BD77 EQ PUSH2 0x1D1 JUMPI PUSH2 0x9E JUMP JUMPDEST DUP1 PUSH4 0x205B97CB EQ PUSH2 0xA3 JUMPI DUP1 PUSH4 0x2B022BA0 EQ PUSH2 0xBF JUMPI DUP1 PUSH4 0x364344E1 EQ PUSH2 0xDD JUMPI DUP1 PUSH4 0x48CBF1D1 EQ PUSH2 0xF9 JUMPI DUP1 PUSH4 0x6FCB76A4 EQ PUSH2 0x129 JUMPI JUMPDEST PUSH1 0x0 DUP1 REVERT JUMPDEST PUSH2 0xBD PUSH1 0x4 DUP1 CALLDATASIZE SUB DUP2 ADD SWAP1 PUSH2 0xB8 SWAP2 SWAP1 PUSH2 0x82E JUMP JUMPDEST PUSH2 0x1EF JUMP JUMPDEST STOP JUMPDEST PUSH2 0xC7 PUSH2 0x292 JUMP JUMPDEST PUSH1 0x40 MLOAD PUSH2 0xD4 SWAP2 SWAP1 PUSH2 0xA16 JUMP JUMPDEST PUSH1 0x40 MLOAD DUP1 SWAP2 SUB SWAP1 RETURN JUMPDEST PUSH2 0xF7 PUSH1 0x4 DUP1 CALLDATASIZE SUB DUP2 ADD SWAP1 PUSH2 0xF2 SWAP2 SWAP1 PUSH2 0xA38 JUMP JUMPDEST PUSH2 0x4A7 JUMP JUMPDEST STOP JUMPDEST PUSH2 0x113 PUSH1 0x4 DUP1 CALLDATASIZE SUB DUP2 ADD SWAP1 PUSH2 0x10E SWAP2 SWAP1 PUSH2 0x82E JUMP JUMPDEST PUSH2 0x53C JUMP JUMPDEST PUSH1 0x40 MLOAD PUSH2 0x120 SWAP2 SWAP1 PUSH2 0xA16 JUMP JUMPDEST PUSH1 0x40 MLOAD DUP1 SWAP2 SUB SWAP1 RETURN JUMPDEST PUSH2 0x131 PUSH2 0x543 JUMP JUMPDEST PUSH1 0x40 MLOAD PUSH2 0x13E SWAP2 SWAP1 PUSH2 0xA16 JUMP JUMPDEST PUSH1 0x40 MLOAD DUP1 SWAP2 SUB SWAP1 RETURN JUMPDEST PUSH2 0x14F PUSH2 0x588 JUMP JUMPDEST PUSH1 0x40 MLOAD PUSH2 0x15C SWAP2 SWAP1 PUSH2 0xB20 JUMP JUMPDEST PUSH1 0x40 MLOAD DUP1 SWAP2 SUB SWAP1 RETURN JUMPDEST PUSH2 0x16D PUSH2 0x5AE JUMP JUMPDEST PUSH1 0x40 MLOAD PUSH2 0x17A SWAP2 SWAP1 PUSH2 0xA16 JUMP JUMPDEST PUSH1 0x40 MLOAD DUP1 SWAP2 SUB SWAP1 RETURN JUMPDEST PUSH2 0x19D PUSH1 0x4 DUP1 CALLDATASIZE SUB DUP2 ADD SWAP1 PUSH2 0x198 SWAP2 SWAP1 PUSH2 0x82E JUMP JUMPDEST PUSH2 0x5F3 JUMP JUMPDEST PUSH1 0x40 MLOAD PUSH2 0x1AA SWAP2 SWAP1 PUSH2 0xA16 JUMP JUMPDEST PUSH1 0x40 MLOAD DUP1 SWAP2 SUB SWAP1 RETURN JUMPDEST PUSH2 0x1BB PUSH2 0x5FA JUMP JUMPDEST PUSH1 0x40 MLOAD PUSH2 0x1C8 SWAP2 SWAP1 PUSH2 0xB85 JUMP JUMPDEST PUSH1 0x40 MLOAD DUP1 SWAP2 SUB SWAP1 RETURN JUMPDEST PUSH2 0x1D9 PUSH2 0x688 JUMP JUMPDEST PUSH1 0x40 MLOAD PUSH2 0x1E6 SWAP2 SWAP1 PUSH2 0xA16 JUMP JUMPDEST PUSH1 0x40 MLOAD DUP1 SWAP2 SUB SWAP1 RETURN JUMPDEST PUSH1 0x1 PUSH1 0x0 SWAP1 SLOAD SWAP1 PUSH2 0x100 EXP SWAP1 DIV PUSH20 0xFFFFFFFFFFFFFFFFFFFFFFFFFFFFFFFFFFFFFFFF AND PUSH20 0xFFFFFFFFFFFFFFFFFFFFFFFFFFFFFFFFFFFFFFFF AND CALLER PUSH20 0xFFFFFFFFFFFFFFFFFFFFFFFFFFFFFFFFFFFFFFFF AND EQ PUSH2 0x27F JUMPI PUSH1 0x40 MLOAD PUSH32 0x8C379A000000000000000000000000000000000000000000000000000000000 DUP2 MSTORE PUSH1 0x4 ADD PUSH2 0x276 SWAP1 PUSH2 0xBF3 JUMP JUMPDEST PUSH1 0x40 MLOAD DUP1 SWAP2 SUB SWAP1 REVERT JUMPDEST DUP1 PUSH1 0x0 SWAP1 DUP2 PUSH2 0x28E SWAP2 SWAP1 PUSH2 0xE29 JUMP JUMPDEST POP POP JUMP JUMPDEST PUSH1 0x60 PUSH1 0x2 DUP1 SLOAD DUP1 PUSH1 0x20 MUL PUSH1 0x20 ADD PUSH1 0x40 MLOAD SWAP1 DUP2 ADD PUSH1 0x40 MSTORE DUP1 SWAP3 SWAP2 SWAP1 DUP2 DUP2 MSTORE PUSH1 0x20 ADD PUSH1 0x0 SWAP1 JUMPDEST DUP3 DUP3 LT ISZERO PUSH2 0x49E JUMPI DUP4 DUP3 SWAP1 PUSH1 0x0 MSTORE PUSH1 0x20 PUSH1 0x0 KECCAK256 SWAP1 PUSH1 0x3 MUL ADD PUSH1 0x40 MLOAD DUP1 PUSH1 0x60 ADD PUSH1 0x40 MSTORE SWAP1 DUP2 PUSH1 0x0 DUP3 ADD DUP1 SLOAD PUSH2 0x2E9 SWAP1 PUSH2 0xC42 JUMP JUMPDEST DUP1 PUSH1 0x1F ADD PUSH1 0x20 DUP1 SWAP2 DIV MUL PUSH1 0x20 ADD PUSH1 0x40 MLOAD SWAP1 DUP2 ADD PUSH1 0x40 MSTORE DUP1 SWAP3 SWAP2 SWAP1 DUP2 DUP2 MSTORE PUSH1 0x20 ADD DUP3 DUP1 SLOAD PUSH2 0x315 SWAP1 PUSH2 0xC42 JUMP JUMPDEST DUP1 ISZERO PUSH2 0x362 JUMPI DUP1 PUSH1 0x1F LT PUSH2 0x337 JUMPI PUSH2 0x100 DUP1 DUP4 SLOAD DIV MUL DUP4 MSTORE SWAP2 PUSH1 0x20 ADD SWAP2 PUSH2 0x362 JUMP JUMPDEST DUP3 ADD SWAP2 SWAP1 PUSH1 0x0 MSTORE PUSH1 0x20 PUSH1 0x0 KECCAK256 SWAP1 JUMPDEST DUP2 SLOAD DUP2 MSTORE SWAP1 PUSH1 0x1 ADD SWAP1 PUSH1 0x20 ADD DUP1 DUP4 GT PUSH2 0x345 JUMPI DUP3 SWAP1 SUB PUSH1 0x1F AND DUP3 ADD SWAP2 JUMPDEST POP POP POP POP POP DUP2 MSTORE PUSH1 0x20 ADD PUSH1 0x1 DUP3 ADD DUP1 SLOAD PUSH2 0x37B SWAP1 PUSH2 0xC42 JUMP JUMPDEST DUP1 PUSH1 0x1F ADD PUSH1 0x20 DUP1 SWAP2 DIV MUL PUSH1 0x20 ADD PUSH1 0x40 MLOAD SWAP1 DUP2 ADD PUSH1 0x40 MSTORE DUP1 SWAP3 SWAP2 SWAP1 DUP2 DUP2 MSTORE PUSH1 0x20 ADD DUP3 DUP1 SLOAD PUSH2 0x3A7 SWAP1 PUSH2 0xC42 JUMP JUMPDEST DUP1 ISZERO PUSH2 0x3F4 JUMPI DUP1 PUSH1 0x1F LT PUSH2 0x3C9 JUMPI PUSH2 0x100 DUP1 DUP4 SLOAD DIV MUL DUP4 MSTORE SWAP2 PUSH1 0x20 ADD SWAP2 PUSH2 0x3F4 JUMP JUMPDEST DUP3 ADD SWAP2 SWAP1 PUSH1 0x0 MSTORE PUSH1 0x20 PUSH1 0x0 KECCAK256 SWAP1 JUMPDEST DUP2 SLOAD DUP2 MSTORE SWAP1 PUSH1 0x1 ADD SWAP1 PUSH1 0x20 ADD DUP1 DUP4 GT PUSH2 0x3D7 JUMPI DUP3 SWAP1 SUB PUSH1 0x1F AND DUP3 ADD SWAP2 JUMPDEST POP POP POP POP POP DUP2 MSTORE PUSH1 0x20 ADD PUSH1 0x2 DUP3 ADD DUP1 SLOAD PUSH2 0x40D SWAP1 PUSH2 0xC42 JUMP JUMPDEST DUP1 PUSH1 0x1F ADD PUSH1 0x20 DUP1 SWAP2 DIV MUL PUSH1 0x20 ADD PUSH1 0x40 MLOAD SWAP1 DUP2 ADD PUSH1 0x40 MSTORE DUP1 SWAP3 SWAP2 SWAP1 DUP2 DUP2 MSTORE PUSH1 0x20 ADD DUP3 DUP1 SLOAD PUSH2 0x439 SWAP1 PUSH2 0xC42 JUMP JUMPDEST DUP1 ISZERO PUSH2 0x486 JUMPI DUP1 PUSH1 0x1F LT PUSH2 0x45B JUMPI PUSH2 0x100 DUP1 DUP4 SLOAD DIV MUL DUP4 MSTORE SWAP2 PUSH1 0x20 ADD SWAP2 PUSH2 0x486 JUMP JUMPDEST DUP3 ADD SWAP2 SWAP1 PUSH1 0x0 MSTORE PUSH1 0x20 PUSH1 0x0 KECCAK256 SWAP1 JUMPDEST DUP2 SLOAD DUP2 MSTORE SWAP1 PUSH1 0x1 ADD SWAP1 PUSH1 0x20 ADD DUP1 DUP4 GT PUSH2 0x469 JUMPI DUP3 SWAP1 SUB PUSH1 0x1F AND DUP3 ADD SWAP2 JUMPDEST POP POP POP POP POP DUP2 MSTORE POP POP DUP2 MSTORE PUSH1 0x20 ADD SWAP1 PUSH1 0x1 ADD SWAP1 PUSH2 0x2B6 JUMP JUMPDEST POP POP POP POP SWAP1 POP SWAP1 JUMP JUMPDEST PUSH1 0x0 PUSH1 0x40 MLOAD DUP1 PUSH1 0x60 ADD PUSH1 0x40 MSTORE DUP1 DUP6 DUP2 MSTORE PUSH1 0x20 ADD DUP5 DUP2 MSTORE PUSH1 0x20 ADD DUP4 DUP2 MSTORE POP SWAP1 POP PUSH1 0x2 DUP2 SWAP1 DUP1 PUSH1 0x1 DUP2 SLOAD ADD DUP1 DUP3 SSTORE DUP1 SWAP2 POP POP PUSH1 0x1 SWAP1 SUB SWAP1 PUSH1 0x0 MSTORE PUSH1 0x20 PUSH1 0x0 KECCAK256 SWAP1 PUSH1 0x3 MUL ADD PUSH1 0x0 SWAP1 SWAP2 SWAP1 SWAP2 SWAP1 SWAP2 POP PUSH1 0x0 DUP3 ADD MLOAD DUP2 PUSH1 0x0 ADD SWAP1 DUP2 PUSH2 0x507 SWAP2 SWAP1 PUSH2 0xE29 JUMP JUMPDEST POP PUSH1 0x20 DUP3 ADD MLOAD DUP2 PUSH1 0x1 ADD SWAP1 DUP2 PUSH2 0x51D SWAP2 SWAP1 PUSH2 0xE29 JUMP JUMPDEST POP PUSH1 0x40 DUP3 ADD MLOAD DUP2 PUSH1 0x2 ADD SWAP1 DUP2 PUSH2 0x533 SWAP2 SWAP1 PUSH2 0xE29 JUMP JUMPDEST POP POP POP POP POP POP POP JUMP JUMPDEST PUSH1 0x60 SWAP2 SWAP1 POP JUMP JUMPDEST PUSH1 0x60 PUSH2 0x583 PUSH1 0x40 MLOAD DUP1 PUSH1 0x40 ADD PUSH1 0x40 MSTORE DUP1 PUSH1 0x6 DUP2 MSTORE PUSH1 0x20 ADD PUSH32 0x5570646174650000000000000000000000000000000000000000000000000000 DUP2 MSTORE POP PUSH2 0x6CD JUMP JUMPDEST SWAP1 POP SWAP1 JUMP JUMPDEST PUSH1 0x1 PUSH1 0x0 SWAP1 SLOAD SWAP1 PUSH2 0x100 EXP SWAP1 DIV PUSH20 0xFFFFFFFFFFFFFFFFFFFFFFFFFFFFFFFFFFFFFFFF AND DUP2 JUMP JUMPDEST PUSH1 0x60 PUSH2 0x5EE PUSH1 0x40 MLOAD DUP1 PUSH1 0x40 ADD PUSH1 0x40 MSTORE DUP1 PUSH1 0x4 DUP2 MSTORE PUSH1 0x20 ADD PUSH32 0x5265616400000000000000000000000000000000000000000000000000000000 DUP2 MSTORE POP PUSH2 0x6CD JUMP JUMPDEST SWAP1 POP SWAP1 JUMP JUMPDEST PUSH1 0x60 SWAP2 SWAP1 POP JUMP JUMPDEST PUSH1 0x0 DUP1 SLOAD PUSH2 0x607 SWAP1 PUSH2 0xC42 JUMP JUMPDEST DUP1 PUSH1 0x1F ADD PUSH1 0x20 DUP1 SWAP2 DIV MUL PUSH1 0x20 ADD PUSH1 0x40 MLOAD SWAP1 DUP2 ADD PUSH1 0x40 MSTORE DUP1 SWAP3 SWAP2 SWAP1 DUP2 DUP2 MSTORE PUSH1 0x20 ADD DUP3 DUP1 SLOAD PUSH2 0x633 SWAP1 PUSH2 0xC42 JUMP JUMPDEST DUP1 ISZERO PUSH2 0x680 JUMPI DUP1 PUSH1 0x1F LT PUSH2 0x655 JUMPI PUSH2 0x100 DUP1 DUP4 SLOAD DIV MUL DUP4 MSTORE SWAP2 PUSH1 0x20 ADD SWAP2 PUSH2 0x680 JUMP JUMPDEST DUP3 ADD SWAP2 SWAP1 PUSH1 0x0 MSTORE PUSH1 0x20 PUSH1 0x0 KECCAK256 SWAP1 JUMPDEST DUP2 SLOAD DUP2 MSTORE SWAP1 PUSH1 0x1 ADD SWAP1 PUSH1 0x20 ADD DUP1 DUP4 GT PUSH2 0x663 JUMPI DUP3 SWAP1 SUB PUSH1 0x1F AND DUP3 ADD SWAP2 JUMPDEST POP POP POP POP POP DUP2 JUMP JUMPDEST PUSH1 0x60 PUSH2 0x6C8 PUSH1 0x40 MLOAD DUP1 PUSH1 0x40 ADD PUSH1 0x40 MSTORE DUP1 PUSH1 0x5 DUP2 MSTORE PUSH1 0x20 ADD PUSH32 0x5772697465000000000000000000000000000000000000000000000000000000 DUP2 MSTORE POP PUSH2 0x6CD JUMP JUMPDEST SWAP1 POP SWAP1 JUMP JUMPDEST PUSH1 0x60 SWAP2 SWAP1 POP JUMP JUMPDEST PUSH1 0x0 PUSH1 0x40 MLOAD SWAP1 POP SWAP1 JUMP JUMPDEST PUSH1 0x0 DUP1 REVERT JUMPDEST PUSH1 0x0 DUP1 REVERT JUMPDEST PUSH1 0x0 DUP1 REVERT JUMPDEST PUSH1 0x0 DUP1 REVERT JUMPDEST PUSH1 0x0 PUSH1 0x1F NOT PUSH1 0x1F DUP4 ADD AND SWAP1 POP SWAP2 SWAP1 POP JUMP JUMPDEST PUSH32 0x4E487B7100000000000000000000000000000000000000000000000000000000 PUSH1 0x0 MSTORE PUSH1 0x41 PUSH1 0x4 MSTORE PUSH1 0x24 PUSH1 0x0 REVERT JUMPDEST PUSH2 0x73B DUP3 PUSH2 0x6F2 JUMP JUMPDEST DUP2 ADD DUP2 DUP2 LT PUSH8 0xFFFFFFFFFFFFFFFF DUP3 GT OR ISZERO PUSH2 0x75A JUMPI PUSH2 0x759 PUSH2 0x703 JUMP JUMPDEST JUMPDEST DUP1 PUSH1 0x40 MSTORE POP POP POP JUMP JUMPDEST PUSH1 0x0 PUSH2 0x76D PUSH2 0x6D4 JUMP JUMPDEST SWAP1 POP PUSH2 0x779 DUP3 DUP3 PUSH2 0x732 JUMP JUMPDEST SWAP2 SWAP1 POP JUMP JUMPDEST PUSH1 0x0 PUSH8 0xFFFFFFFFFFFFFFFF DUP3 GT ISZERO PUSH2 0x799 JUMPI PUSH2 0x798 PUSH2 0x703 JUMP JUMPDEST JUMPDEST PUSH2 0x7A2 DUP3 PUSH2 0x6F2 JUMP JUMPDEST SWAP1 POP PUSH1 0x20 DUP2 ADD SWAP1 POP SWAP2 SWAP1 POP JUMP JUMPDEST DUP3 DUP2 DUP4 CALLDATACOPY PUSH1 0x0 DUP4 DUP4 ADD MSTORE POP POP POP JUMP JUMPDEST PUSH1 0x0 PUSH2 0x7D1 PUSH2 0x7CC DUP5 PUSH2 0x77E JUMP JUMPDEST PUSH2 0x763 JUMP JUMPDEST SWAP1 POP DUP3 DUP2 MSTORE PUSH1 0x20 DUP2 ADD DUP5 DUP5 DUP5 ADD GT ISZERO PUSH2 0x7ED JUMPI PUSH2 0x7EC PUSH2 0x6ED JUMP JUMPDEST JUMPDEST PUSH2 0x7F8 DUP5 DUP3 DUP6 PUSH2 0x7AF JUMP JUMPDEST POP SWAP4 SWAP3 POP POP POP JUMP JUMPDEST PUSH1 0x0 DUP3 PUSH1 0x1F DUP4 ADD SLT PUSH2 0x815 JUMPI PUSH2 0x814 PUSH2 0x6E8 JUMP JUMPDEST JUMPDEST DUP2 CALLDATALOAD PUSH2 0x825 DUP5 DUP3 PUSH1 0x20 DUP7 ADD PUSH2 0x7BE JUMP JUMPDEST SWAP2 POP POP SWAP3 SWAP2 POP POP JUMP JUMPDEST PUSH1 0x0 PUSH1 0x20 DUP3 DUP5 SUB SLT ISZERO PUSH2 0x844 JUMPI PUSH2 0x843 PUSH2 0x6DE JUMP JUMPDEST JUMPDEST PUSH1 0x0 DUP3 ADD CALLDATALOAD PUSH8 0xFFFFFFFFFFFFFFFF DUP2 GT ISZERO PUSH2 0x862 JUMPI PUSH2 0x861 PUSH2 0x6E3 JUMP JUMPDEST JUMPDEST PUSH2 0x86E DUP5 DUP3 DUP6 ADD PUSH2 0x800 JUMP JUMPDEST SWAP2 POP POP SWAP3 SWAP2 POP POP JUMP JUMPDEST PUSH1 0x0 DUP2 MLOAD SWAP1 POP SWAP2 SWAP1 POP JUMP JUMPDEST PUSH1 0x0 DUP3 DUP3 MSTORE PUSH1 0x20 DUP3 ADD SWAP1 POP SWAP3 SWAP2 POP POP JUMP JUMPDEST PUSH1 0x0 DUP2 SWAP1 POP PUSH1 0x20 DUP3 ADD SWAP1 POP SWAP2 SWAP1 POP JUMP JUMPDEST PUSH1 0x0 DUP2 MLOAD SWAP1 POP SWAP2 SWAP1 POP JUMP JUMPDEST PUSH1 0x0 DUP3 DUP3 MSTORE PUSH1 0x20 DUP3 ADD SWAP1 POP SWAP3 SWAP2 POP POP JUMP JUMPDEST PUSH1 0x0 JUMPDEST DUP4 DUP2 LT ISZERO PUSH2 0x8DD JUMPI DUP1 DUP3 ADD MLOAD DUP2 DUP5 ADD MSTORE PUSH1 0x20 DUP2 ADD SWAP1 POP PUSH2 0x8C2 JUMP JUMPDEST PUSH1 0x0 DUP5 DUP5 ADD MSTORE POP POP POP POP JUMP JUMPDEST PUSH1 0x0 PUSH2 0x8F4 DUP3 PUSH2 0x8A3 JUMP JUMPDEST PUSH2 0x8FE DUP2 DUP6 PUSH2 0x8AE JUMP JUMPDEST SWAP4 POP PUSH2 0x90E DUP2 DUP6 PUSH1 0x20 DUP7 ADD PUSH2 0x8BF JUMP JUMPDEST PUSH2 0x917 DUP2 PUSH2 0x6F2 JUMP JUMPDEST DUP5 ADD SWAP2 POP POP SWAP3 SWAP2 POP POP JUMP JUMPDEST PUSH1 0x0 PUSH1 0x60 DUP4 ADD PUSH1 0x0 DUP4 ADD MLOAD DUP5 DUP3 SUB PUSH1 0x0 DUP7 ADD MSTORE PUSH2 0x93F DUP3 DUP3 PUSH2 0x8E9 JUMP JUMPDEST SWAP2 POP POP PUSH1 0x20 DUP4 ADD MLOAD DUP5 DUP3 SUB PUSH1 0x20 DUP7 ADD MSTORE PUSH2 0x959 DUP3 DUP3 PUSH2 0x8E9 JUMP JUMPDEST SWAP2 POP POP PUSH1 0x40 DUP4 ADD MLOAD DUP5 DUP3 SUB PUSH1 0x40 DUP7 ADD MSTORE PUSH2 0x973 DUP3 DUP3 PUSH2 0x8E9 JUMP JUMPDEST SWAP2 POP POP DUP1 SWAP2 POP POP SWAP3 SWAP2 POP POP JUMP JUMPDEST PUSH1 0x0 PUSH2 0x98C DUP4 DUP4 PUSH2 0x922 JUMP JUMPDEST SWAP1 POP SWAP3 SWAP2 POP POP JUMP JUMPDEST PUSH1 0x0 PUSH1 0x20 DUP3 ADD SWAP1 POP SWAP2 SWAP1 POP JUMP JUMPDEST PUSH1 0x0 PUSH2 0x9AC DUP3 PUSH2 0x877 JUMP JUMPDEST PUSH2 0x9B6 DUP2 DUP6 PUSH2 0x882 JUMP JUMPDEST SWAP4 POP DUP4 PUSH1 0x20 DUP3 MUL DUP6 ADD PUSH2 0x9C8 DUP6 PUSH2 0x893 JUMP JUMPDEST DUP1 PUSH1 0x0 JUMPDEST DUP6 DUP2 LT ISZERO PUSH2 0xA04 JUMPI DUP5 DUP5 SUB DUP10 MSTORE DUP2 MLOAD PUSH2 0x9E5 DUP6 DUP3 PUSH2 0x980 JUMP JUMPDEST SWAP5 POP PUSH2 0x9F0 DUP4 PUSH2 0x994 JUMP JUMPDEST SWAP3 POP PUSH1 0x20 DUP11 ADD SWAP10 POP POP PUSH1 0x1 DUP2 ADD SWAP1 POP PUSH2 0x9CC JUMP JUMPDEST POP DUP3 SWAP8 POP DUP8 SWAP6 POP POP POP POP POP POP SWAP3 SWAP2 POP POP JUMP JUMPDEST PUSH1 0x0 PUSH1 0x20 DUP3 ADD SWAP1 POP DUP2 DUP2 SUB PUSH1 0x0 DUP4 ADD MSTORE PUSH2 0xA30 DUP2 DUP5 PUSH2 0x9A1 JUMP JUMPDEST SWAP1 POP SWAP3 SWAP2 POP POP JUMP JUMPDEST PUSH1 0x0 DUP1 PUSH1 0x0 PUSH1 0x60 DUP5 DUP7 SUB SLT ISZERO PUSH2 0xA51 JUMPI PUSH2 0xA50 PUSH2 0x6DE JUMP JUMPDEST JUMPDEST PUSH1 0x0 DUP5 ADD CALLDATALOAD PUSH8 0xFFFFFFFFFFFFFFFF DUP2 GT ISZERO PUSH2 0xA6F JUMPI PUSH2 0xA6E PUSH2 0x6E3 JUMP JUMPDEST JUMPDEST PUSH2 0xA7B DUP7 DUP3 DUP8 ADD PUSH2 0x800 JUMP JUMPDEST SWAP4 POP POP PUSH1 0x20 DUP5 ADD CALLDATALOAD PUSH8 0xFFFFFFFFFFFFFFFF DUP2 GT ISZERO PUSH2 0xA9C JUMPI PUSH2 0xA9B PUSH2 0x6E3 JUMP JUMPDEST JUMPDEST PUSH2 0xAA8 DUP7 DUP3 DUP8 ADD PUSH2 0x800 JUMP JUMPDEST SWAP3 POP POP PUSH1 0x40 DUP5 ADD CALLDATALOAD PUSH8 0xFFFFFFFFFFFFFFFF DUP2 GT ISZERO PUSH2 0xAC9 JUMPI PUSH2 0xAC8 PUSH2 0x6E3 JUMP JUMPDEST JUMPDEST PUSH2 0xAD5 DUP7 DUP3 DUP8 ADD PUSH2 0x800 JUMP JUMPDEST SWAP2 POP POP SWAP3 POP SWAP3 POP SWAP3 JUMP JUMPDEST PUSH1 0x0 PUSH20 0xFFFFFFFFFFFFFFFFFFFFFFFFFFFFFFFFFFFFFFFF DUP3 AND SWAP1 POP SWAP2 SWAP1 POP JUMP JUMPDEST PUSH1 0x0 PUSH2 0xB0A DUP3 PUSH2 0xADF JUMP JUMPDEST SWAP1 POP SWAP2 SWAP1 POP JUMP JUMPDEST PUSH2 0xB1A DUP2 PUSH2 0xAFF JUMP JUMPDEST DUP3 MSTORE POP POP JUMP JUMPDEST PUSH1 0x0 PUSH1 0x20 DUP3 ADD SWAP1 POP PUSH2 0xB35 PUSH1 0x0 DUP4 ADD DUP5 PUSH2 0xB11 JUMP JUMPDEST SWAP3 SWAP2 POP POP JUMP JUMPDEST PUSH1 0x0 DUP3 DUP3 MSTORE PUSH1 0x20 DUP3 ADD SWAP1 POP SWAP3 SWAP2 POP POP JUMP JUMPDEST PUSH1 0x0 PUSH2 0xB57 DUP3 PUSH2 0x8A3 JUMP JUMPDEST PUSH2 0xB61 DUP2 DUP6 PUSH2 0xB3B JUMP JUMPDEST SWAP4 POP PUSH2 0xB71 DUP2 DUP6 PUSH1 0x20 DUP7 ADD PUSH2 0x8BF JUMP JUMPDEST PUSH2 0xB7A DUP2 PUSH2 0x6F2 JUMP JUMPDEST DUP5 ADD SWAP2 POP POP SWAP3 SWAP2 POP POP JUMP JUMPDEST PUSH1 0x0 PUSH1 0x20 DUP3 ADD SWAP1 POP DUP2 DUP2 SUB PUSH1 0x0 DUP4 ADD MSTORE PUSH2 0xB9F DUP2 DUP5 PUSH2 0xB4C JUMP JUMPDEST SWAP1 POP SWAP3 SWAP2 POP POP JUMP JUMPDEST PUSH32 0x4E6F7420417574686F72697A6564000000000000000000000000000000000000 PUSH1 0x0 DUP3 ADD MSTORE POP JUMP JUMPDEST PUSH1 0x0 PUSH2 0xBDD PUSH1 0xE DUP4 PUSH2 0xB3B JUMP JUMPDEST SWAP2 POP PUSH2 0xBE8 DUP3 PUSH2 0xBA7 JUMP JUMPDEST PUSH1 0x20 DUP3 ADD SWAP1 POP SWAP2 SWAP1 POP JUMP JUMPDEST PUSH1 0x0 PUSH1 0x20 DUP3 ADD SWAP1 POP DUP2 DUP2 SUB PUSH1 0x0 DUP4 ADD MSTORE PUSH2 0xC0C DUP2 PUSH2 0xBD0 JUMP JUMPDEST SWAP1 POP SWAP2 SWAP1 POP JUMP JUMPDEST PUSH32 0x4E487B7100000000000000000000000000000000000000000000000000000000 PUSH1 0x0 MSTORE PUSH1 0x22 PUSH1 0x4 MSTORE PUSH1 0x24 PUSH1 0x0 REVERT JUMPDEST PUSH1 0x0 PUSH1 0x2 DUP3 DIV SWAP1 POP PUSH1 0x1 DUP3 AND DUP1 PUSH2 0xC5A JUMPI PUSH1 0x7F DUP3 AND SWAP2 POP JUMPDEST PUSH1 0x20 DUP3 LT DUP2 SUB PUSH2 0xC6D JUMPI PUSH2 0xC6C PUSH2 0xC13 JUMP JUMPDEST JUMPDEST POP SWAP2 SWAP1 POP JUMP JUMPDEST PUSH1 0x0 DUP2 SWAP1 POP DUP2 PUSH1 0x0 MSTORE PUSH1 0x20 PUSH1 0x0 KECCAK256 SWAP1 POP SWAP2 SWAP1 POP JUMP JUMPDEST PUSH1 0x0 PUSH1 0x20 PUSH1 0x1F DUP4 ADD DIV SWAP1 POP SWAP2 SWAP1 POP JUMP JUMPDEST PUSH1 0x0 DUP3 DUP3 SHL SWAP1 POP SWAP3 SWAP2 POP POP JUMP JUMPDEST PUSH1 0x0 PUSH1 0x8 DUP4 MUL PUSH2 0xCD5 PUSH32 0xFFFFFFFFFFFFFFFFFFFFFFFFFFFFFFFFFFFFFFFFFFFFFFFFFFFFFFFFFFFFFFFF DUP3 PUSH2 0xC98 JUMP JUMPDEST PUSH2 0xCDF DUP7 DUP4 PUSH2 0xC98 JUMP JUMPDEST SWAP6 POP DUP1 NOT DUP5 AND SWAP4 POP DUP1 DUP7 AND DUP5 OR SWAP3 POP POP POP SWAP4 SWAP3 POP POP POP JUMP JUMPDEST PUSH1 0x0 DUP2 SWAP1 POP SWAP2 SWAP1 POP JUMP JUMPDEST PUSH1 0x0 DUP2 SWAP1 POP SWAP2 SWAP1 POP JUMP JUMPDEST PUSH1 0x0 PUSH2 0xD26 PUSH2 0xD21 PUSH2 0xD1C DUP5 PUSH2 0xCF7 JUMP JUMPDEST PUSH2 0xD01 JUMP JUMPDEST PUSH2 0xCF7 JUMP JUMPDEST SWAP1 POP SWAP2 SWAP1 POP JUMP JUMPDEST PUSH1 0x0 DUP2 SWAP1 POP SWAP2 SWAP1 POP JUMP JUMPDEST PUSH2 0xD40 DUP4 PUSH2 0xD0B JUMP JUMPDEST PUSH2 0xD54 PUSH2 0xD4C DUP3 PUSH2 0xD2D JUMP JUMPDEST DUP5 DUP5 SLOAD PUSH2 0xCA5 JUMP JUMPDEST DUP3 SSTORE POP POP POP POP JUMP JUMPDEST PUSH1 0x0 SWAP1 JUMP JUMPDEST PUSH2 0xD69 PUSH2 0xD5C JUMP JUMPDEST PUSH2 0xD74 DUP2 DUP5 DUP5 PUSH2 0xD37 JUMP JUMPDEST POP POP POP JUMP JUMPDEST JUMPDEST DUP2 DUP2 LT ISZERO PUSH2 0xD98 JUMPI PUSH2 0xD8D PUSH1 0x0 DUP3 PUSH2 0xD61 JUMP JUMPDEST PUSH1 0x1 DUP2 ADD SWAP1 POP PUSH2 0xD7A JUMP JUMPDEST POP POP JUMP JUMPDEST PUSH1 0x1F DUP3 GT ISZERO PUSH2 0xDDD JUMPI PUSH2 0xDAE DUP2 PUSH2 0xC73 JUMP JUMPDEST PUSH2 0xDB7 DUP5 PUSH2 0xC88 JUMP JUMPDEST DUP2 ADD PUSH1 0x20 DUP6 LT ISZERO PUSH2 0xDC6 JUMPI DUP2 SWAP1 POP JUMPDEST PUSH2 0xDDA PUSH2 0xDD2 DUP6 PUSH2 0xC88 JUMP JUMPDEST DUP4 ADD DUP3 PUSH2 0xD79 JUMP JUMPDEST POP POP JUMPDEST POP POP POP JUMP JUMPDEST PUSH1 0x0 DUP3 DUP3 SHR SWAP1 POP SWAP3 SWAP2 POP POP JUMP JUMPDEST PUSH1 0x0 PUSH2 0xE00 PUSH1 0x0 NOT DUP5 PUSH1 0x8 MUL PUSH2 0xDE2 JUMP JUMPDEST NOT DUP1 DUP4 AND SWAP2 POP POP SWAP3 SWAP2 POP POP JUMP JUMPDEST PUSH1 0x0 PUSH2 0xE19 DUP4 DUP4 PUSH2 0xDEF JUMP JUMPDEST SWAP2 POP DUP3 PUSH1 0x2 MUL DUP3 OR SWAP1 POP SWAP3 SWAP2 POP POP JUMP JUMPDEST PUSH2 0xE32 DUP3 PUSH2 0x8A3 JUMP JUMPDEST PUSH8 0xFFFFFFFFFFFFFFFF DUP2 GT ISZERO PUSH2 0xE4B JUMPI PUSH2 0xE4A PUSH2 0x703 JUMP JUMPDEST JUMPDEST PUSH2 0xE55 DUP3 SLOAD PUSH2 0xC42 JUMP JUMPDEST PUSH2 0xE60 DUP3 DUP3 DUP6 PUSH2 0xD9C JUMP JUMPDEST PUSH1 0x0 PUSH1 0x20 SWAP1 POP PUSH1 0x1F DUP4 GT PUSH1 0x1 DUP2 EQ PUSH2 0xE93 JUMPI PUSH1 0x0 DUP5 ISZERO PUSH2 0xE81 JUMPI DUP3 DUP8 ADD MLOAD SWAP1 POP JUMPDEST PUSH2 0xE8B DUP6 DUP3 PUSH2 0xE0D JUMP JUMPDEST DUP7 SSTORE POP PUSH2 0xEF3 JUMP JUMPDEST PUSH1 0x1F NOT DUP5 AND PUSH2 0xEA1 DUP7 PUSH2 0xC73 JUMP JUMPDEST PUSH1 0x0 JUMPDEST DUP3 DUP2 LT ISZERO PUSH2 0xEC9 JUMPI DUP5 DUP10 ADD MLOAD DUP3 SSTORE PUSH1 0x1 DUP3 ADD SWAP2 POP PUSH1 0x20 DUP6 ADD SWAP5 POP PUSH1 0x20 DUP2 ADD SWAP1 POP PUSH2 0xEA4 JUMP JUMPDEST DUP7 DUP4 LT ISZERO PUSH2 0xEE6 JUMPI DUP5 DUP10 ADD MLOAD PUSH2 0xEE2 PUSH1 0x1F DUP10 AND DUP3 PUSH2 0xDEF JUMP JUMPDEST DUP4 SSTORE POP JUMPDEST PUSH1 0x1 PUSH1 0x2 DUP9 MUL ADD DUP9 SSTORE POP POP POP JUMPDEST POP POP POP POP POP POP JUMP INVALID LOG2 PUSH5 0x6970667358 0x22 SLT KECCAK256 CALLDATACOPY DIV 0xC4 REVERT MUL 0x4E 0xD6 XOR 0x5C 0xC4 SDIV 0xD1 SWAP11 PUSH14 0xF91CDAB98610149F4932D78A5935 0x1F 0xB1 DUP11 0xA7 PUSH5 0x736F6C6343 STOP ADDMOD SLT STOP CALLER "
				},
				"gasEstimates": {
					"creation": {
						"codeDepositCost": "777800",
						"executionCost": "25078",
						"totalCost": "802878"
					},
					"external": {
						"addInformedConsentRecord(string,string,string)": "infinite",
						"getAllInformedConsents()": "infinite",
						"getConsentsByObject(string)": "infinite",
						"getConsentsBySubject(string)": "infinite",
						"getConsentsForRead()": "infinite",
						"getConsentsForUpdate()": "infinite",
						"getConsentsForWrite()": "infinite",
						"owner()": "2514",
						"patientId()": "infinite",
						"setPatientId(string)": "infinite"
					},
					"internal": {
						"getConsentsByAction(string memory)": "20"
					}
				},
				"methodIdentifiers": {
					"addInformedConsentRecord(string,string,string)": "364344e1",
					"getAllInformedConsents()": "2b022ba0",
					"getConsentsByObject(string)": "48cbf1d1",
					"getConsentsBySubject(string)": "c10eeaec",
					"getConsentsForRead()": "afbd0197",
					"getConsentsForUpdate()": "6fcb76a4",
					"getConsentsForWrite()": "e378bd77",
					"owner()": "8da5cb5b",
					"patientId()": "e07f4444",
					"setPatientId(string)": "205b97cb"
				}
			},
			"storageLayout": {
				"storage": [
					{
						"astId": 4,
						"contract": "InformedConsent.sol:InformedConsentContract",
						"label": "patientId",
						"offset": 0,
						"slot": "0",
						"type": "t_string_storage"
					},
					{
						"astId": 6,
						"contract": "InformedConsent.sol:InformedConsentContract",
						"label": "owner",
						"offset": 0,
						"slot": "1",
						"type": "t_address"
					},
					{
						"astId": 17,
						"contract": "InformedConsent.sol:InformedConsentContract",
						"label": "informedConsents",
						"offset": 0,
						"slot": "2",
						"type": "t_array(t_struct(InformedConsent)13_storage)dyn_storage"
					}
				],
				"types": {
					"t_address": {
						"encoding": "inplace",
						"label": "address",
						"numberOfBytes": "20"
					},
					"t_array(t_struct(InformedConsent)13_storage)dyn_storage": {
						"base": "t_struct(InformedConsent)13_storage",
						"encoding": "dynamic_array",
						"label": "struct InformedConsentContract.InformedConsent[]",
						"numberOfBytes": "32"
					},
					"t_string_storage": {
						"encoding": "bytes",
						"label": "string",
						"numberOfBytes": "32"
					},
					"t_struct(InformedConsent)13_storage": {
						"encoding": "inplace",
						"label": "struct InformedConsentContract.InformedConsent",
						"members": [
							{
								"astId": 8,
								"contract": "InformedConsent.sol:InformedConsentContract",
								"label": "subject",
								"offset": 0,
								"slot": "0",
								"type": "t_string_storage"
							},
							{
								"astId": 10,
								"contract": "InformedConsent.sol:InformedConsentContract",
								"label": "action",
								"offset": 0,
								"slot": "1",
								"type": "t_string_storage"
							},
							{
								"astId": 12,
								"contract": "InformedConsent.sol:InformedConsentContract",
								"label": "object",
								"offset": 0,
								"slot": "2",
								"type": "t_string_storage"
							}
						],
						"numberOfBytes": "96"
					}
				}
			},
			"userdoc": {
				"kind": "user",
				"methods": {},
				"version": 1
			}
		}
	}
}